:100000000C94E2030C94FF030C94FF030C94FF0385
:100010000C94FF030C94FF030C94FF030C94FF0358
:100020000C94FF030C94FF030C9412190C944E18BB
:100030000C94CF2D0C94FF030C94FF030C94FF033E
:100040000C94FF030C94FF030C94FF030C94FF0328
:100050000C94FF030C94822D0C94FF030C94FF036B
:100060000C94FF030C94FF030C94FF030C94FF0308
:100070000C94FF030C94FF030C94FF030C94FF03F8
:100080000C94FF030C94FF030C94FF030C94FF03E8
:100090000C94FF030C94FF030C94FF030C94FF03D8
:1000A0000C94FF030C94FF030C94FF039309930932
:1000B000C309C309550A710A900B900B7C0AF00A18
:1000C000010B010BF11207130D13551455144313B3
:1000D0004F135E13551465135514551455146D13B1
:1000E000791383139B13D313E5130B142D14541698
:1000F0007B1630187B163018C716EA163018EB1727
:10010000FB1700047F3F1F643214643214783C1ED6
:100110001E140A05FD377A585A000004E6D6B44684
:100120000200210116000000742FE5A3E001430046
:10013000AC5D003D8889C65436C3174FE4F22B6985
:100140001F8633FC9A460406D209AACBF62BD5DECD
:10015000E25D06BA37C83AA6A309733A18DC4B1316
:100160001F3C9A78B438B5B7B5D968BE2B071BD2F7
:100170009BC76A50B8924722D4A6CC9A76B775B07E
:100180003D1FA40FD66342508A70386F6FE09FF412
:1001900067A90B0F60DFDEFCDCA780DC82EA7EDC77
:1001A000DA5113A3D1E56F5336049E1D9DDA5163D6
:1001B0005EDE4D66C8EF1054789CD4429617F14E1F
:1001C000EB68B3B3406EF636B2CA1DB0AB0F1D1369
:1001D00079E6E03D277C4BE1ED8AF37354B1B10041
:1001E0009E9E4DECE833B4050001C801C402000036
:1001F0008BCC25F9B1C467FB020000000004595AFA
:1002000005010902A10185020901A10005091901E1
:1002100029051500250195057501810295017503D4
:1002200081010501093009311581257F9502750885
:10023000810609381581257F950175088106050C11
:100240000A38021581257F950175088106C0C00511
:10025000010980A101850319012AB700150126B7FC
:1002600000950175108100C0050C0901A1018504EC
:1002700019012AA002150126A0029501751081001E
:10028000C00660FF0961A1010962150026FF009503
:1002900020750881020963150026FF009520750866
:1002A0009102C005010906A101050719E029E7151A
:1002B00000250195087501810295017508810105E8
:1002C00007190029FF150026FF0095067508810013
:1002D0000508190129059505750191029501750318
:1002E0009101C009025B00030100A0FA09040000AB
:1002F000010301010009211101000122400007054D
:100300008103080001090401000203000000092123
:1003100011010001222200070582032000010705C8
:100320000303200001090402000103000000092169
:100330001101000122810007058403200001120140
:100340000002000000082540606001000102030176
:100350001C037600690061006C003A0066003600FC
:1003600034006300320062003300630000001003B9
:1003700047006800650072006B0069006E000000B5
:10038000200334003000200050006500720063003C
:1003900065006E007400200043006C007500620070
:1003A0000000040309042223252628292A2C2D2FA6
:1003B0003032333536383A3B3D3E4042434547497B
:1003C0004A4C4E5051535557595A5C5E60626466B0
:1003D00068696B6D6F71737577797B7D7F818385BC
:1003E00087898A8C8E90929496989A9C9E9FA1A3BE
:1003F000A5A7A8AAACAEAFB1B3B4B6B8B9BBBCBEE2
:10040000BFC1C2C3C5C6C7C9CACBCCCDCED0D1D25D
:10041000D2D3D4D5D6D7D7D8D9D9DADADBDBDBDC5F
:10042000DCDCDCDCDDDDDDDDDCDCDCDCDCDBDBDB0B
:10043000DADAD9D9D8D7D7D6D5D4D3D2D2D1D0CE6B
:10044000CDCCCBCAC9C7C6C5C3C2C1BFBEBCBBB970
:10045000B8B6B4B3B1AFAEACAAA8A7A5A3A19F9EEE
:100460009C9A98969492908E8C8A89878583817FB6
:100470007D7B79777573716F6D6B69686664626097
:100480005E5C5A5957555351504E4C4A4947454363
:1004900042403E3D3B3A3836353332302F2D2C2A00
:1004A0002928262523220001010101010101010162
:1004B0000202020202020202020303030303030315
:1004C00003040404040404040505050505060606E2
:1004D0000606070707070708080808090909090A9F
:1004E0000A0A0B0B0B0C0C0C0D0D0D0E0E0E0F0F44
:1004F0000F101011111112121313141415151616D2
:100500001717181819191A1A1B1B1C1D1D1E1E1F40
:100510002020212222232424252626272829292A8F
:100520002B2C2D2D2E2F30313232333435363738B7
:10053000393A3B3C3D3E3F404142434445464748B3
:10054000494A4C4D4E4F50515354555658595A5B89
:100550005D5E5F616264656668696B6C6D6F707229
:10056000737577787A7B7D7E8082838587888A8C95
:100570008E8F91939596989A9C9EA0A2A3A5A7A9C9
:10058000ABADAFB1B3B5B7BABCBEC0C2C4C6C9CBC0
:10059000CDCFD1D4D6D8DBDDDFE2E4E7E9EBEEF076
:1005A000F3F5F8FAFDFFFFAA7F554014001A000882
:1005B00000150017001C0018000C001200130004A6
:1005C000001600070009000A000B000D000E000FC6
:1005D0000029001D611B64064319442A422C410571
:1005E000451174107128721E001F00200021002286
:1005F00000230024002500260027003A003B003C91
:10060000003D003E003F0040004100420043000129
:10061000000100010001004C000100010001000187
:100620000001001E021F02200221022202230224D6
:1006300002250226022702440045000100010001B4
:10064000000100010001000100350001000100016E
:100650000001000100010001000100010001000192
:100660000001000100010001002D002E002F0030CC
:100670000031002B000100010001000100360037AD
:1006800000380033003400010001000100010001C6
:100690000001005000510052004F00010001000114
:1006A00000010001002D022E022F02300231022B28
:1006B0000001000100010001003602370238023358
:1006C0000234020100010001000100010001004AA2
:1006D000004E004B004D00B200B500B100B3000168
:1006E00000010001000100010046000100010001BD
:1006F0000001000100010001000100BD5CBE5C01C1
:1007000000010001000100005C0100010001000186
:1007100000010000000000000000000000000000D8
:1007200000000000000000000000000000000000C9
:10073000000000000000007E0F00D4FFFFFFC70094
:1007400000007800000000000000002A2B280000B4
:100750000000000000000000000000000000290070
:100760000000002C1E3420212224342627252E367A
:100770002D3738271E1F20212223242526333336E8
:100780002E37381F0405060708090A0B0C0D0E0F3B
:10079000101112131415161718191A1B1C1D2F31BE
:1007A00030232D350405060708090A0B0C0D0E0F22
:1007B000101112131415161718191A1B1C1D2F319E
:1007C00030354C0011241FBECFEFDAE0DEBFCDBFC5
:1007D00011E0A0E0B1E0E0E5FEE602C005900D9278
:1007E000AA39B107D9F725E0AAE9B1E001C01D9205
:1007F000A632B207E1F70E940D0D0C9426370C9437
:1008000000002F923F924F925F926F927F928F9251
:100810009F92AF92BF92CF92DF92EF92FF920F938F
:100820001F93CF93DF93CDB7DEB72C970FB6F89415
:10083000DEBF0FBECDBFFC01808191812381348159
:10084000232B31F09F3F31F491E08F3F19F403C027
:1008500091E001C090E090FF02C00C94F40C7F0185
:1008600061E0CF010E9423338C01D70112968C9155
:10087000811105C0F701328031103EC0A1C78091BF
:100880000D0190910E010196A9F348E6C42E44E0B3
:10089000D42EA12CB12C9924939480910D01909188
:1008A0000E018A159B0534F3D60116968C91169786
:1008B0008823D9F019968D919C911A9708171907DA
:1008C00039F480916604909167040817190769F05C
:1008D000F601978614870387C6010E949E2EC601E3
:1008E00006960E94572E10926504FFEFAF1ABF0ABA
:1008F00026E1C20ED11CD1CFC80182519F4540973D
:1009000008F0AFC08FEF93E00E941336811143C708
:10091000025137E0A32E32E0B32E002379F0A11468
:1009200034E0B30609F437C7C5010E9413368111BC
:1009300001C001504FEFA41AB40AEFCF19821A82F6
:100940001B821C82CC24CA9485010F5F1F4FC501F6
:100950000E94133689831A82882309F41CC78130C8
:1009600009F07AC0450152E0850E911CC8010E9431
:100970001336D82E8A83882309F40DC78FEF8D0D87
:10098000833050F40E5F1F4FC4010E9413368B83D7
:10099000811162C05801D8CF8BEF8D0D833070F577
:1009A000350183E0680E711CC4010E9413368B83ED
:1009B000811102C08301EECF85010C5F1F4FC3017F
:1009C0000E9413368C83882329F32B813C812130AC
:1009D0009FEF390718F0922F80E001C0C901A6E00F
:1009E000DA1631F0B7E0DB1631F00E947523D2CF72
:1009F0000E944423CFCF0E949E22CCCFE4E0DE169B
:100A000011F08401C7CFC4010E941336D82E85018E
:100A10000C5F1F4FC50103960E941336DD2009F4B9
:100A2000BAC6882309F4B7C6282F30E0215031090F
:100A3000C29EA001C39E500D11248D2D90E0019700
:100A4000840F951F019708F4A5CFAFE9BFE0119778
:100A5000F1F700C00000F6CFCE0101960E9470327F
:100A600099CF0031EFE51E0731F00131FFE51F0797
:100A7000A9F482E001C081E00E94091D0E94611575
:100A80008AC6680127E5D21A3FEFC316D10409F0E0
:100A900008F4A5C6F70132803320D1F00F35FDE50B
:100AA0001F0761F000362DE5120761F00E353DE5B8
:100AB000130771F480910001811104C081E08093DB
:100AC000000169C61092000180E00E94872F63C672
:100AD00080910001811108C0C80197558F3F910591
:100AE00009F008F47AC1CDC1480140EE841A91089A
:100AF0002090950380918703282A80916404282AF6
:100B000058E08516910480F498012770332781E01E
:100B100090E001C0880F2A95EAF7332011F0282AC7
:100B200018C08095282215C0332009F416C11093EF
:100B30009D0100939C010E94B72D60935604709311
:100B40005704809358049093590410925E041092B5
:100B50005D04D7018D919C910E949B1C21E030E0A7
:100B6000F90102C0EE0FFF1F8A95E2F7FC87EB87C1
:100B700020915F043091600438872F8340919C015D
:100B800050919D015A8749871D82432C512C5D81CC
:100B9000E52FF0E0EE0FFF1FE256FD4FC080D18041
:100BA000C114D10409F4F0C0211005C0D601129679
:100BB0008C918111CEC0F601838190E02B853C851C
:100BC00082239323892B09F4C4C08085982F9770C2
:100BD00009F487E038E08316910440F4332019F0DB
:100BE00081FD09C0B6C082FD06C0B3C0332009F440
:100BF000B0C080FFAEC0D601AD90BC900A151B05F9
:100C000019F4332009F4A5C0EF81F885CE16DF066C
:100C100009F49FC0D6011D96ED91FC911E97309767
:100C200021F08081882309F494C0622DC6010E94BE
:100C3000F72F882309F48DC00A151B0511F4320122
:100C400002C0612C712CB62DB170BE8381E0A1145D
:100C5000B10441F0B11106C0E985FA85AE16BF06B0
:100C600009F080E080FF75C080E00E94872FD0925D
:100C70006004C0925F0481E080935C04D601159605
:100C80008C9180935A04BE81B11113C0AB2889F0B6
:100C9000F601808191819C0124503109213A31056E
:100CA00030F4682F8AE993E00E94F82D02C00E9478
:100CB000CB1DD6011696AD90BC901797C5019A959D
:100CC00081159F4110F4E0EEBE2255245394C501D6
:100CD0000197853A9D4508F0512CD6011996ED9162
:100CE000FC911A97309739F01B966D917C911C9767
:100CF00081E009955822552029F1F60186819781D6
:100D00000E94B43580935B04C501F8E08F1691040E
:100D100018F40E94362F16C00497813A910530F4DA
:100D20006A2D8AE993E00E94052E0EC00E94D12B05
:100D30008FE39CE90197F1F700C000008A2D0E9423
:100D40002B1E02C00E94D12B91E0692660FE3DC29D
:100D5000C3CEAD81AF5FAD831ACF80919C019091DE
:100D60009D010817190781F410929D0110929C01B2
:100D7000109256041092570410925804109259047D
:100D800010925E0410925D0480915F049091600463
:100D9000009709F4A1CEB8E08B16910438F4622DC7
:100DA0000E94F72F811198CE81E014C0FC012081B0
:100DB00031810217130729F4311006C010925C0428
:100DC00008C0332009F488CEDC0118968C9185FD8B
:100DD00083CE80E00E94872F7FCE20910D0130913D
:100DE0000E012817390724F490930E0180930D010A
:100DF000F701228136E1389F5001399FB00C112450
:100E0000A50148595B4F6A01DA0150962C9350971F
:100E1000928116968C911697992341F11A961C93FC
:100E20000E9319978F5F16968C930E94C32DF6012F
:100E3000968785878091950387839091650480913B
:100E40006404892B80870190F081E02D309749F070
:100E5000D60154966D917C915597C50182599B4F4F
:100E6000099510936704009366040BC0882349F02A
:100E7000FA018189882329F0C50182599B4F0E947C
:100E8000572E033FFCE51F0741F190F4083D3CE578
:100E90001307E9F0093D4CE5140789F1073D5CE5CE
:100EA0001507B1F506E221EE41EE67ED7CE52CC0B9
:100EB000053F8CE51807E9F0B0F0063FACE51A07EE
:100EC00039F507E225EE46EE66EF7CE51DC007E248
:100ED00025EE45EE68ED7CE517C006E221EE40EE1A
:100EE00063EF7CE511C007E225EE44EE64EF7CE59C
:100EF0000BC006E221EE42EE65EF7CE505C008E29C
:100F000021E045EE69ED7CE5C7010E94C32E43C494
:100F1000F7018281882309F490C1109263040330A1
:100F2000FDE51F0758F40A3F2CE5120780F4C801BD
:100F300082509C45449708F035C109C001363DE513
:100F4000130729F0053A4DE5140709F02BC10E945B
:100F5000322B9093A5018093A40101315CE5150724
:100F600009F4C6C008F042C009309CE5190709F42D
:100F70009BC000F50530BCE51B0709F485C078F47B
:100F80000330FCE51F0709F478C008F07AC002308E
:100F90001C4509F0F7C08091A4018160F1C00730C1
:100FA0004CE5140709F478C008F07AC08091A401D8
:100FB0008061E6C00D308CE5180709F487C058F44D
:100FC0000B30ACE51A0709F479C008F07BC08091BA
:100FD000A40188606FC00F30ECE51E0709F480C0E3
:100FE00008F082C08091A401877FCAC00D3F2CE524
:100FF000120709F471C000F505314CE5140709F436
:1010000085C068F403318CE5180709F475C008F051
:1010100095C00E94181D8091A4018F77B1C00B3F2D
:10102000ACE51A07A9F108F054C00A3F1C4509F0C5
:10103000A9C08091A50140C00130FDE51F0709F45A
:1010400089C058F40F3F3CE5130709F45AC008F073
:1010500069C08091A50182602FC001365DE515074A
:1010600009F47EC0053A8DE5180709F483C0023003
:101070001D4509F087C060E06EC08091A4018260C8
:101080007FC08091A40116C08091A401886078C0BF
:101090008091A50182604FC08091A401806270C0E0
:1010A0008091A40180646CC00E94181D8091A401ED
:1010B000806866C0846064C081603DC08091A40186
:1010C0008E7F5EC08091A4018D7F5AC08091A40163
:1010D00016C08091A50118C08091A5018D7F2BC0FD
:1010E0008091A4018F7E4CC08091A4018F7D48C067
:1010F0008091A4018F7B44C08091A401877F8B7F66
:101100003FC08091A5018D7F8E7F15C08091A40185
:1011100082FB222720F991E0922790FB82F990FB35
:1011200083F92EC08091A501982F909591708E7FA4
:10113000892B90FB81F98093A50124C00E94181D82
:101140008091A40187FB222720F991E0922790FB50
:1011500087F916C061E08EE090E00E94273612C049
:101160008091A40184FB222720F991E0922790FB33
:1011700084F906C08091A401982F909590FB80F986
:101180008093A4016091A4011091A50184E090E0F6
:101190000E942736612F82E290E00E9427360E944B
:1011A000181DF9C20631FCE51F07A1F48091640403
:1011B0008A7A91E009F490E090939E01882341F0AF
:1011C00065E38AE993E00E94052E0E94D12BE3C2D9
:1011D00069E2F7CF0A35BDE51B0749F158F401155F
:1011E000FCE51F07B1F00E3D1C4509F047C00E9409
:1011F0004E2BD1C20B353DE51307D9F00C351D45FB
:10120000E9F58091A50182FB882780F991E0892783
:1012100011C00E94181D5FEF84E39CE05150804094
:101220009040E1F700C000000E94712DB4C281E03F
:1012300001C080E00E944D2C21C00631FCE51F0753
:1012400009F414C38091640482720C3CACE51A0763
:1012500009F4AAC308F088C2063CECE51E0709F4AD
:101260008FC308F01DC3033C2CE5120709F47EC3AD
:1012700008F008C3023C1C4509F453C3D701169675
:101280008D919C9117970097B9F4F70182810081A5
:101290001181882349F0C8010E94631AD82E682F53
:1012A000C8010E94CB1C04C0C8010E949B1CD82E00
:1012B000B8018D2D0E9484310E9498298C01D7019C
:1012C0001296DC9012971596CC90C2949FE0C9229A
:1012D00080918A038770B9F0DD20A9F0812F807F8B
:1012E000803421F080E2800F883068F08091A50181
:1012F00082FD09C082E00E94302C80918A038770B1
:10130000BB24B3948111B12CA12EA2948FE0A8220A
:101310008A2D90E08C30910508F002C2FC01EA5A57
:10132000FF4F0C94BB36812F807F1F70882311F0F4
:101330001295107FDD20B9F0112309F4DEC180E29F
:10134000800F883010F0011106C090916404192BB1
:101350001093640405C090916504192B10936504E3
:101360000E94D12BCAC1802F0E94CB1D112309F4EA
:10137000D7C180E2800F883060F1002351F1812FC6
:101380000E94C32B29C0812F807F1F70803211F0F3
:101390001295107F002321F0013009F45EC069C06E
:1013A0008091A50182FF1BC0DD2069F0112339F077
:1013B00090916404192B109364040E94D12B80E057
:1013C0000E942B1EADC180E00E94CB1D112309F4A9
:1013D000A7C1812F0E94CA2B0E94D12BA1C1DD2061
:1013E00031F1CC20F1F0B1E0CB120FC08091950328
:1013F000182B181709F494C10E94C32D90939403DD
:1014000080939303109395038BC1E5E0CE1209C03E
:101410000E94B82B809187031817C1F1109387039E
:1014200035C080919503812B0E94C11D79C1CC20CC
:1014300051F0F1E0CF120DC080916404812309F4D2
:101440006FC10E94802C0E94B82B812F0E94BA1D70
:1014500067C125E0C212F7CF63C1DD2029F035E076
:101460003C1508F45DC112C044E04C1508F458C1A5
:10147000ECCFDD2069F0CC2049F0D70115968C9196
:10148000159780FF3AC18F7015968C93812FCCCF22
:10149000CC20D9F2093309F040C1BFEFE7EEF3E009
:1014A000B150E040F040E1F736C1812F8695869536
:1014B000837019F0813059F033C1DD2019F0C80173
:1014C000937002C080E090E00E94352E31C1DD2093
:1014D00019F0C801937002C080E090E00E941F2EB6
:1014E00027C1802FDD2019F00E940C2802C00E9425
:1014F00045270E941B271CC1812F8370A9F5D1109D
:1015000013C1402F429546954770440F440F802FDA
:101510008F7090E09C01042E01C0220F0A94EAF71C
:1015200004FF08C08FE090E001C0880F4A95EAF7F9
:10153000809501C080E0169516951370123069F001
:1015400088F490919603113019F0822B892302C000
:10155000922B892B0E94141DE7C0822B9091960339
:101560008927F8CF822BF6CFDD2019F0812F8170EB
:1015700001C08695882309F4D7C0402F429546952F
:101580004770440F440F802F8F7090E09C01042E11
:1015900001C0220F0A94EAF704FF08C08FE090E030
:1015A00001C0880F4A95EAF7809501C080E0169542
:1015B00016951370123059F078F49091CC011130D7
:1015C00019F0822B892309C0922B892B06C0822B0C
:1015D0009091CC01892701C0822B0E94F91CA4C0E4
:1015E0001F70DD2039F0812F0E94091D802F0E947D
:1015F000C11D9AC0802F0E94BA1D812F0E94FD1C20
:1016000093C0023F61F128F4003F41F0013F01F136
:101610006FC0033F59F1043FB9F06AC0DD2079F093
:1016200024E02C1508F47CC01F7181E090E001C01B
:10163000880F1A95EAF79091CC01892721C035E0EF
:101640003C1508F46DC0F0CF8091A50182FF1BC04E
:10165000DD2039F0812F8F710E94091D61C0DD20CE
:10166000C9F3812F8F710E94FD1C5AC0DD2039F013
:101670001F7181E001C0880F1A95EAF701C080E070
:101680000E94F91C4DC0DD20D9F0809187030E9493
:10169000CA2B80918A038770843039F40E94292CE8
:1016A000812F8F710E94FD1C89C044E04C1508F405
:1016B00085C01F71812F0E94091D63E0812F11C019
:1016C0009091640480918703892B8093640454E093
:1016D0005C1550F40E94292C0E94802C64E0812F1C
:1016E0008F710E946A2C6AC081E00E94302C66C013
:1016F000DD2029F0CC2009F4ADCF802F61CECC20A5
:1017000009F4AFCF093349F48FEF97EEA3E081508E
:101710009040A040E1F700C00000802F0E94CB1D48
:1017200088EF8A0D843020F40E944B2E0E9465328F
:10173000BB20A9F080918A0380FD11C0F7011282BD
:101740008595859585950E94091DC7010E94010414
:1017500080918A038595859585950E94FD1C60E0A2
:10176000C7010E94233340C1013D4CE5140709F431
:101770002BC108F4B7C0043DECE51E0709F42AC1EB
:1017800008F4C3C0053D4CE5140709F428C10D3524
:101790001D4509F073CD80918A03877009F424C137
:1017A000D70112968C91882309F41EC18091A5015E
:1017B00082FD1AC182E00E94302C16C1B12CB4CF38
:1017C0000031BFE51B0721F481E00E94FD1C56C9D2
:1017D0000131EFE51E0709F054C982E0F6CF63E45A
:1017E00072E08C2D0E945032892B09F053C986E19A
:1017F0008C9DF0018D9DF00D1124E859FB4F8681E1
:101800008130E1F48091430290914402892B09F4E4
:1018100041C98091450290914602892B09F43AC949
:101820008091470290914802892B09F033C9809139
:10183000490290914A02892B59F02CC9823009F053
:1018400029C98091470290914802892B09F422C945
:1018500026E12C9DC0012D9D900D112488599B4F90
:10186000DC0150961C920E949E2E14C980919E010C
:10187000882311F065E301C069E28AE993E00E94E0
:10188000F82DA3CC043C5CE5150709F474C0053CB5
:101890001C4509F0F3CC44EB56E26DEB76E288C0D0
:1018A000093CACE51A0709F475C070F4073CECE597
:1018B0001E0709F46AC0083C1C4509F0DFCC48EA61
:1018C00056E26CE976E274C00A3C2CE5120709F492
:1018D00066C00B3C1C4509F0D1CC48E055E269E1FB
:1018E00075E266C00E3C8CE5180709F467C008F481
:1018F00062C00F3CACE51A0709F463C0003D1C450B
:1019000009F0BCCC6EE089E067C0023D2CE512070F
:1019100009F45DC0033D1C4509F0B0CC61E088E1ED
:1019200060C08091360280FF1BC08E7F809336029C
:10193000609136027091370280913802909139029D
:101940000E94F62410923C038FEF90E7A2E08150B2
:101950009040A040E1F700C000000E949C241BCFF3
:1019600081608093360261E086953BC048E057E293
:1019700061E177E21DC041E157E268E077E218C01B
:101980004DEB56E264EB76E213C04CE956E268EAAE
:1019900076E20EC044E856E260E976E209C040E92A
:1019A00056E264E876E204C049E155E268E075E297
:1019B0000E949624F0CE61E081E013C065E082E0F1
:1019C0000BC068E086E008C064E18FE005C067E115
:1019D00085E102C062E289E10E948424DCCE61E0FC
:1019E00083E20E94C626D7CE2C960FB6F894DEBFAF
:1019F0000FBECDBFDF91CF911F910F91FF90EF9060
:101A0000DF90CF90BF90AF909F908F907F906F901E
:101A10005F904F903F902F900895CF93DF93CDB775
:101A2000DEB7E4970FB6F894DEBF0FBECDBF84B724
:101A3000877F84BF0FB6F894A89580916000886175
:101A400080936000109260000FBE90E080E80FB6B7
:101A5000F89480936100909361000FBE85B7806811
:101A600085BF85B7806885BF84E798E290939B0126
:101A700080939A010E9448220E94EF210E945E21D9
:101A8000559A209A0E9492180E94B1188091E20003
:101A900084608093E20078948091C2018823A1F051
:101AA0001091E9001F709091EC00892F817090FDDA
:101AB00080E8182B1092E9008091E80083FD0E94D5
:101AC0006C151F701093E90082E084BD93E095BD12
:101AD0009AEF97BD80936E000E946B24811102C023
:101AE0000E945C2409E211E0EEE2EE2EE1E0FE2E1F
:101AF000D8018D918D018F3F11F00E94B928E01619
:101B0000F106B1F70EE211E074E3E72E71E0F72E73
:101B1000F80181918F018F3F11F00E94B928E016E2
:101B2000F106B1F785E0E0EBF1E0DF01282F1D922F
:101B30002A95E9F7EFE9F1E0DF011D928A95E9F7CF
:101B40000E94432B811102C00E944E2B82E090E044
:101B50000E9413368093A7010E94322B9093A50117
:101B60008093A4010E94D028EFE3FCE93197F1F7BC
:101B700000C000000E94D0288091B00180FF08C002
:101B80006FEF7FEF80E090E00E9445360E94712D5C
:101B900083E090E00E9413360E94141D8091A601FC
:101BA000811133C00E94432B811104C00E944E2B2F
:101BB0000E942A2588E090E00E941B36609336023E
:101BC0007093370280933802909339026E7F71F4DC
:101BD0000E942A2588E090E00E941B36609336021E
:101BE0007093370280933802909339020E94E32465
:101BF00010923C038091360280FF04C060E086951D
:101C00000E94C62681E08093A60181E091E0909336
:101C10001B0580931A0548E1642E712C50E4552E63
:101C200065EBC62E61E0D62E8091C201853009F0A9
:101C300045C000E112E18091C201853009F038C051
:101C40008091C201843021F180E00E9465321092BF
:101C50001E050FB6F894A895609260000FBE5092D2
:101C6000600083B7817F846083BF83B7816083BF57
:101C70007894889583B78E7F83BF0FB6F894A89524
:101C800080916000886180936000109260000FBEB8
:101C90008091C101882309F4CECF0E94D028E0EBC7
:101CA000F1E08191811129C6CE16DF06D1F7C3CFAD
:101CB0000E94181D0E944B2E0E9465320E94D0285F
:101CC00081110E94B72DE0EBF1E0A8EAB1E000E05D
:101CD00010E0302F21919D91922721F180E0FF2487
:101CE000F3944F2D4923D1F08BA73CA72F2181E0FE
:101CF00009F480E08DA70E94C32D8160782F9FA7F3
:101D00008EA74BA55CA56DA58FA50E945A33F8013F
:101D1000E855FE4F8081F826F08219C08F5FFF0CD6
:101D20008630F9F60F5F1F4F0530110591F68FEFE2
:101D300088AB89AB1AAA0E94C32D8160782F9CAB17
:101D40008BAB48A959A96AA98CA90E945A338091E2
:101D50005D0490915E04892B09F43EC040915204C9
:101D60005091530460915404709155042FB7F89426
:101D700080911F0590912005A0912105B091220529
:101D80002FBF841B950BA60BB70B40914E045091AF
:101D90004F04609150047091510484179507A60771
:101DA000B707D0F080915D0490915E040E94E13508
:101DB00010925E0410925D0410925204109253042B
:101DC000109254041092550410924E0410924F0435
:101DD000109250041092510480910D0190910E01C7
:101DE000019661F1912C36E1832E1FC0889EF0018F
:101DF000899EF00D1124E859FB4FE288F388E11425
:101E0000F10419F428ECE22EF12C889E8001899EC1
:101E1000100D1124980128593B4F5901D9011696EC
:101E20008C91169781110FC09394892D90E0209189
:101E30000D0130910E0128173907C4F68091200159
:101E4000811113C03AC01D968D919C911E970E94DE
:101E5000A82DE816F90640F7C5010E949E2EC8017C
:101E600082599B4F0E94572EDFCF80914C04909156
:101E70004D04009711F10E94A82D2091A6033091E6
:101E8000A70328173907C8F490914A0480914B049E
:101E9000981759F00E94C5301092A7031092A6031C
:101EA00010924D0410924C0408C00E9445301092CC
:101EB0004D0410924C040E94A63080913C0388236C
:101EC00009F493C080913B03E0913602E695E81B4C
:101ED000E0933703823059F4F0E0E05FFE4FE49185
:101EE0000E2F10E096EEE92E90E2F92E59C08630C2
:101EF00059F4F0E0E35FFE4FE4910E2F10E086ED21
:101F0000E82E80E2F82E4CC0893061F4E695F0E0CE
:101F1000E65FFE4FE4910E2F10E0BCE6EB2EB0E240
:101F2000FB2E3EC08F3061F4E695F0E0E95FFE4F96
:101F3000E4910E2F10E0AFEFEA2EAFE1FA2E30C0A1
:101F4000853159F4F0E0EC5FFE4FE4910E2F10E084
:101F5000F1EBEF2EFFE1FF2E23C08831A1F0833299
:101F600049F4E2E0F1E005911491E6E9EE2EE0E2B9
:101F7000FE2E16C0843271F000ED17E07DEEE72EE4
:101F80007EE1F72E0DC008E210E068E2E62E6FE178
:101F9000F62E06C004EF11E05EEEE52E5EE1F52EB2
:101FA00080913803882361F0109238030E94C32D7A
:101FB000909336038093350310923A0310923903BD
:101FC0000E94C32DE0913503F09136038E1B9F0BC9
:101FD0008F3F9F4750F40E0F1F1F1093360300933F
:101FE000350385E393E0F701099586E0EFE2F3E03E
:101FF0008E010F5F1F4FD80101900D928A95E1F776
:10200000A0903103B0903203E0903303F09034039A
:102010001092310310923203109233031092340362
:10202000A11003C0BB2009F451C080912D039091F1
:102030002E030E94A82D9C0190912903992309F455
:102040007BC42531310508F441C09F3F19F09F5FE3
:1020500090932903AA2061F00E94EC271A1414F42B
:1020600091E001C09FEF899F802D1124809331035F
:10207000BB2061F00E94EC271B1414F491E001C016
:102080009FEF899F802D112480933203309131037B
:102090003323E1F0209132032223C1F045EB3403D6
:1020A000C0011124992319F09093310303C081E0FA
:1020B0008093310335EB2303C0011124992319F0D8
:1020C0009093320303C081E080933203E11003C098
:1020D000FF2009F451C080912B0390912C030E94A2
:1020E000A82D9C0190912803992309F42AC4213535
:1020F000310508F441C09F3F19F09F5F909328037A
:10210000EE2061F00E94CA271E1414F491E001C071
:102110009FEF899F802D112480933303FF2061F06E
:102120000E94CA271F1414F491E001C09FEF899FF9
:10213000802D112480933403309133033323E1F055
:10214000209134032223C1F045EB3403C001112454
:10215000992319F09093330303C081E080933303F4
:1021600035EB2303C0011124992319F09093340314
:1021700003C081E0809334038091310381110BC04F
:1021800080913203811107C080913303811103C014
:102190008091340381110E941B27AB82BC82ED82A7
:1021A000FE8286E0F801AFE2B3E001900D928A95DD
:1021B000E1F70E944B2E9091AD01891721F0809399
:1021C000AD010E9465328091C201843009F02CCDAE
:1021D00083E08093E9008091E80082FF25CD809123
:1021E000E80085FF21C00E94E91981111BC040E26F
:1021F000A42EB12C780109C08091F100D7018D93F4
:102200007D01B1E0AB1AB10869F08091E80085FD6D
:10221000F3CF8091E8008B778093E8000E94E91962
:10222000882399F391E001C090E08091E8008B77DA
:102230008093E800992309F4F7CCE090A403F09090
:10224000A5038981E114F10461F08E3F09F02DC3EB
:102250008A81833008F4B9C18550833008F025C3E2
:10226000B4C1893009F4E7C0D0F4843009F46BC0FC
:1022700050F48230A1F108F059C0813009F013C345
:102280001A8289E03EC2863009F46FC008F462C049
:10229000873009F46DC0883009F4ACC004C38031C4
:1022A00009F432C180F48D3009F4D0C028F48C30A8
:1022B00009F0F9C280E12CC18E3009F4CBC08F3017
:1022C00009F4F3C0F0C2823109F424C108F41FC13B
:1022D000833109F448C18E3F09F477C1E4C28A8191
:1022E000823009F420C3833051F0813009F0DBC221
:1022F0000E94B72D9B838C837D836E83D6C2809191
:102300001E0190911F01892B09F4CFC28091B00169
:102310008B838091B1018C838091B2018D838091F8
:10232000B3018E838091B4018F83BFC28A818230D2
:1023300009F0B9C26B817C818D819E810E94C1367A
:102340000E943A24B2C24C816B818A810E94302162
:102350009D83F0C22D813E813227232732274C8175
:102360006B818A810E94FA20A0C20E94A0319DC286
:102370008A818138B1F050F4803809F096C220E0AB
:102380004B81609138028091370231C0823859F117
:10239000833809F08AC220E0409139026C818B8138
:1023A00026C060E08B810E94C6269B818091360208
:1023B000911111C08E7F8093360210923C03EFEF93
:1023C000F0E722E0E150F0402040E1F700C00000DB
:1023D0000E949C246AC281608093360260E08695E8
:1023E0000E94C62662C28B8180933A025EC20E941E
:1023F000E9255BC28A81813899F030F4803809F090
:1024000054C2809139027DC1823891F0833809F03D
:102410004CC2809137028B83809138028C8345C2F5
:102420008091360280FF02C086956BC180E069C151
:1024300080913A0266C160913602709137028091B4
:102440003802909139020E94F6242FC281E08A83DB
:1024500089EF57C1EA80FB80FE24EF24FE248C80A4
:10246000912C3DE18316910408F01FC25801C70169
:10247000895F9D4F9501201B310B2815390508F008
:1024800014C249EFE41641E0F40630F40E9413361A
:10249000D50114968C9302C0F5011482FFEFEF1A58
:1024A000FF0A2FEFA21AB20AE2CF80911E0190918B
:1024B0001F01892B09F4F9C1EA80FB80FE24EF2477
:1024C000FE24AC80B12C3DE1A316B10408F0EDC1AF
:1024D0004801C701895F9D4F9401201B310B2A15CC
:1024E0003B0508F0E2C149EFE41641E0F40628F4A8
:1024F000D40114966C910E942736BFEFEB1AFB0AA9
:10250000EFEF8E1A9E0AE5CF0E947431CEC184E0AF
:102510008A83CBC1EA80FB80FE24EF24FE248C80DA
:10252000912CFDE18F16910408F0BFC15801C7013D
:1025300087969501201B310B2815390508F0B5C188
:1025400020EFE216F10430F40E941336D501149600
:102550008C9302C0F5011482FFEFEF1AFF0A2FEFF0
:10256000A21AB20AE4CFEA80FB80FE24EF24FE2404
:10257000AC80B12C3DE1A316B10408F096C140EF48
:10258000E416F10408F091C180EF90E08E199F09E4
:102590008A159B0508F489C14801C70187969401F3
:1025A000201B310B2A153B0508F07FC1A0EFEA166E
:1025B000F10420F4F40164810E942736FFEFEF1A42
:1025C000FF0A2FEF821A920AE8CFEA818E2F90E05D
:1025D0008E30910508F069C1FC01EE59FF4F0C9453
:1025E000BB3688E0E1E2F1E0DE01919601900D92C8
:1025F0008A95E1F780E2D8011D928A95E9F785E096
:10260000898388E0FE01B196DE01159621C18CEE2A
:1026100089831A821B821C8248C18C8190E0982F8A
:1026200088272B81820F911D092E000CAA0BBB0B52
:1026300035E0880F991FAA1FBB1F3A95D1F7AC014F
:10264000BD01405E5F4F6F4F7F4F481759076A07C4
:102650007B0708F42AC18C3E9105A105B10508F05D
:1026600024C14D3E51056105710520F04CEE50E04E
:1026700060E070E0481B590BBC016C5E7E4FC801E6
:102680000E94FA3512C140E250E06FEF70E0C801DD
:102690000E941F3780911E018983EA8206C181E072
:1026A00090E09093A5038093A40382E390E090933D
:1026B000AF018093AE010E94C32DF7C080911E012F
:1026C0008983EA828091AE011CC040E250E06FEF46
:1026D00070E0C8010E941F37E8C0EB818E2F90E0A8
:1026E0008730910508F0E1C0FC01E059FF4F0C94E0
:1026F000BB3680E2F80111928A95E9F788E0898378
:102700008A838B83D2C08C819AE0F92E5E01F1E23C
:10271000AF0EB11CD501EF2D1D92EA95E9F7B50179
:102720000E9450328983F501DE01129601900D92CC
:10273000FA94E1F7BAC0FC808AE0FE013596DE012A
:10274000919601900D928A95E1F789A19AA10E9434
:102750002A249AA389A38BA19CA10E942A249CA32A
:102760008BA38DA19EA10E942A249EA38DA38FA13D
:1027700098A50E942A2498A78FA3F7E0FF1570F070
:102780002AE0F29EB0011124695E7E4F4AE050E0DB
:10279000CE0181960E944B3680E001C08FEF898385
:1027A0000E94482282C06C81CE0181962AE0DC0121
:1027B0001D922A95E9F7683008F043C0BAE06B9F94
:1027C000B001112469597E4F36C0FC808AE0FE01B9
:1027D0003596DE01919601900D928A95E1F789A5D3
:1027E0009AA50E942A249AA789A7E7E0EF1570F01E
:1027F000FAE0FF9EB001112469597E4F4AE050E093
:10280000CE0181960E944B3680E001C08FEF898314
:102810000E94EF214AC06C81CE0181962AE0DC0142
:102820001D922A95E9F7683060F4BAE06B9FB00119
:10283000112469547E4F4AE050E00E94033680E044
:1028400001C08FEF89838AE0FE01B196DE01129606
:1028500001900D928A95E1F728C0FC808AE0FE0184
:102860003596DE01919601900D928A95E1F78BA144
:102870009CA10E942A249CA38BA3E7E0EF1570F093
:10288000FAE0FF9EB001112469547E4F4AE050E007
:10289000CE0181960E944B3680E001C08FEF898384
:1028A0000E945E2102C08FEF89838091C201843033
:1028B00009F0BAC98091E9008F702091EC00922F45
:1028C000917020FD90E8F92EF82A82E08093E900CB
:1028D0008091E80080FF0CC040E050E060E270E0D2
:1028E000C8010E941C1A8091E8008E778093E8004E
:1028F0008F2D8F708093E90097C909BD19BD09B468
:1029000000FEFDCF8091D8008F7D8093D80080910C
:10291000E00082608093E0008091E00081FDFCCFC8
:102920000E94181D88C986E290E00E9413361B821F
:102930001C821D828E83B9CF2B30310508F087CBE6
:10294000C5CB2B30310508F0D8CB16CC8091C40113
:1029500087FF11C08091E80082FD05C08091C2010F
:102960008111F8CF11C08091E8008B770BC0809166
:10297000C201882349F08091E80080FFF8CF809160
:10298000E8008E778093E8000895982F973068F5D7
:102990009093E900981739F07091EC002091ED00C8
:1029A0005091F00003C0242F762F50E021FD02C08B
:1029B0009F5FECCF3091EB003E7F3093EB00309186
:1029C000ED003D7F3093ED003091EB0031603093AE
:1029D000EB007093EC002093ED005093F0002091F9
:1029E000EE0027FDE5CF80E008958F708093E90029
:1029F00081E008952091CA013091CB012617370755
:102A000048F06115710539F42091E8002E77209384
:102A1000E80001C0B901FC0120E06115710579F100
:102A20008091C2018823F1F18530F1F18091E800B5
:102A300083FD3CC08091E80082FD2EC08091E800BB
:102A400080FFEBCF2091F3008091F20090E0922B79
:102A50006115710551F08830910538F4219120936A
:102A6000F100615071090196F3CF21E0089709F058
:102A700020E08091E8008E778093E800CECF21118E
:102A8000CFCF0AC08091C201882361F0853061F008
:102A90008091E80083FD0AC08091E80082FFF2CFB8
:102AA00080E0089582E0089583E0089581E008952C
:102AB0000895BC0184E00C94472DBC0183E00C9484
:102AC000472D8091CC01982F9670963011F4886034
:102AD00001C0877F0C94F91C1F93CF93DF93CDB770
:102AE000DEB7AA970FB6F894DEBF0FBECDBFE4ECF9
:102AF000F1E08CEC91E02091F10021938E179F077B
:102B0000D1F78091C501833009F463C030F481307E
:102B100071F0823009F49DC0B4C08A3009F489C0D4
:102B20008B3009F46EC0893009F0ABC020C08091B1
:102B3000C401813A09F0A5C08091E800877F8093A5
:102B4000E8008091C8019091C901892B21F468E0C7
:102B500088EB91E003C060E080E090E070E00E94CC
:102B6000FA148091E8008B778093E8008AC0809106
:102B7000C401813209F085C08091C8019091C901DA
:102B8000009719F0029709F07CC08091E800877FD8
:102B90008093E8008091E80082FD05C08091C20129
:102BA0008111F8CF6EC02091F3008091F20090E087
:102BB000922B029731F48091F100813011F0863030
:102BC00021F48091F1008093B7018091E8008B7728
:102BD00054C08091C401813A09F053C08091C8016A
:102BE0009091C901892B09F04CC08091E800877F42
:102BF0008093E8008091E80080FFFCCF80910F0176
:102C000037C08091C4018132E1F58091C801909173
:102C1000C901892BB1F58091E800877F8093E80096
:102C20000E94A6148091C60180930F010E94181D76
:102C300028C08091C401813221F58091E800877F0E
:102C40008093E8000E94A6148091C7018093B6018A
:102C500018C08091C401813AA1F48091E800877F77
:102C60008093E8008091E80080FFFCCF8091B6015E
:102C70008093F1008091E8008E778093E8000E94B5
:102C8000A6148091E80083FFEBC18091C40190916C
:102C9000C501492F50E04A30510508F0E1C1FA0161
:102CA000E958FF4F0C94BB36803821F0823809F088
:102CB000D7C108C08091C0019091C101992389F0CA
:102CC00082600FC08091C8018F70873008F0C8C142
:102CD0008093E9008091EB0085FB882780F91092B2
:102CE000E9009091E800977F9093E8008093F100CD
:102CF0001092F1007CC1282F2D7F09F0B1C18823EB
:102D000019F0823061F0ACC18091C601813009F0C8
:102D1000A7C1933009F080E08093C1012EC080915B
:102D2000C60181112AC08091C8018F702FEF280F32
:102D3000263008F095C18093E9002091EB0020FF38
:102D40001CC0933021F48091EB00806214C09091FC
:102D5000EB0090619093EB0021E030E0A90102C00C
:102D6000440F551F8A95E2F74093EA001092EA005B
:102D70008091EB0088608093EB001092E9008091D5
:102D8000E800877F8093E8000E94A61469C1811142
:102D900067C11091C6011F778091E3008078812B75
:102DA0008093E3008091E800877F8093E8000E9491
:102DB000A6148091E80080FFFCCF8091E30080683A
:102DC0008093E300111102C082E001C083E0809390
:102DD000C20146C18058823008F042C12091C6012C
:102DE0003091C7012C3D53E0350779F583E08A83A4
:102DF0008AE289834FB7F894DE01139620E03EE023
:102E000051E2E32FF0E050935700E49120FF03C01C
:102E1000E295EF703F5FEF708E2F90E0EA3010F098
:102E2000C79601C0C0968D939D932F5F243149F7BB
:102E30004FBF8091E800877F8093E8006AE270E0EE
:102E4000CE0101960E94FA14C0C08091C8019091F1
:102E5000C901432F552743305105B1F068F4413083
:102E6000510509F40CC14230510509F0F9C08BE558
:102E700090E0E3EEF2E057C04132510589F1423271
:102E8000510509F43CC0ECC0C90199278130910576
:102E9000B9F070F082309105D9F0039709F0E0C0E5
:102EA000E0E5F3E0E4918E2F90E0E0E5F3E038C058
:102EB000E2EAF3E0E4918E2F90E0E2EAF3E030C042
:102EC000E0E8F3E0E4918E2F90E0E0E8F3E028C042
:102ED000EEE6F3E0E4918E2F90E0EEE6F3E020C022
:102EE0008330910508F0BCC0880F991FFC01E35C9A
:102EF000FE4F0190F081E02D89E090E014C0833016
:102F0000910508F0ADC0FC01EE0FFF1FE95CFE4F1C
:102F10000190F081E02DDC01AC5CBE4F8C9190E023
:102F2000009709F49DC02091E800277F2093E800D6
:102F30002091CA013091CB012817390708F4C90143
:102F400040E0009789F12091C201222309F43DC09D
:102F50002530D9F12091E80023FD37C02091E80009
:102F600022FD2FC02091E80020FFEBCF4091F3001D
:102F70002091F20030E0342B009759F028303105D1
:102F800040F444914093F100319601972F5F3F4FF9
:102F9000F3CF41E02830310509F040E02091E8000E
:102FA0002E772093E800CDCF4111CDCF0AC080917C
:102FB000C201882351F0853041F08091E80083FD03
:102FC00004C08091E80082FFF2CF8091E8008B7707
:102FD0008093E80045C0803809F042C08091E80045
:102FE000877F8093E8008091C3018093F1008091F6
:102FF000E8008E77C7CE811133C08091C6019091D1
:10300000C7019927029764F58091E800877F809334
:10301000E8001091C6011093C3010E94A61411117B
:1030200006C08091E30087FD02C081E001C084E01A
:103030008093C20142E061EC81E00E94C51442E24B
:1030400061EC84E00E94C51442E261EC82E00E94DF
:10305000C51442E260EC83E00E94C5148091C20175
:103060008091E80083FF10C08091E800877F809303
:10307000E8008091EB0080628093EB0005C082E164
:1030800090E0EEE3F3E04FCFAA960FB6F894DEBFE0
:103090000FBECDBFDF91CF911F9108951F920F9268
:1030A0000FB60F9211242F933F934F935F936F931B
:1030B0007F938F939F93AF93BF93CF93DF93EF93C0
:1030C000FF93C091E900CF708091EC00D82FD170B0
:1030D00080FDD0E81092E9008091F000877F809316
:1030E000F00078940E946C151092E9008091F00035
:1030F00088608093F000CD2BCF70C093E900FF91E2
:10310000EF91DF91CF91BF91AF919F918F917F917F
:103110006F915F914F913F912F910F900FBE0F9044
:103120001F901895E8EDF0E080818E7F80831092EB
:10313000E2001092DA001092E100A0EEB0E08C9173
:1031400081608C9380818F77808319BCA7EDB0E07C
:103150008C918E7F8C9380818F7E80831092B501BD
:103160000895CF92DF92EF92FF920F931F93CF9328
:10317000DF93C8EDD0E088818F7E8883E7EDF0E0B3
:1031800080818160808384E082BF81E08093B5018B
:1031900088818E7F888302EE10E0F8011082109201
:1031A000DA0081EEC82ED12CF601108288818F774B
:1031B000888388818068888388818F7D888319BC13
:1031C0001092C2011092C3011092C1011092C0016D
:1031D00090EEE92EF12CF70180818B7F808388812E
:1031E0008160888342E060E080E00E94C514F601BF
:1031F00080818E7F8083F8018081816080838081DF
:1032000088608083F70180818E7F808388818061E0
:103210008883DF91CF911F910F91FF90EF90DF9006
:10322000CF9008951F920F920FB60F9211242F93F3
:103230003F934F935F936F937F938F939F93AF933E
:10324000BF93EF93FF938091E10082FF09C08091CB
:10325000E20082FF05C08091E1008B7F8093E10056
:103260008091DA0080FF2AC08091D80080FF26C0BC
:103270008091DA008E7F8093DA008091D90080FF00
:1032800018C080E189BD82E189BD09B400FEFDCF8F
:1032900081E08093C2018091B50181110FC00E942D
:1032A00092180E94B1188091E20084608093E2003D
:1032B00005C019BC1092C2011092B5018091E100C5
:1032C00080FF17C08091E20080FF13C08091E20070
:1032D0008E7F8093E2008091E20080618093E20023
:1032E0008091D80080628093D80019BC85E08093DB
:1032F000C2018091E10084FF30C08091E20084FF30
:103300002CC080E189BD82E189BD09B400FEFDCFFA
:103310008091D8008F7D8093D8008091E1008F7ECE
:103320008093E1008091E2008F7E8093E2008091A3
:10333000E20081608093E2008091C301882311F054
:1033400084E007C08091E30087FD02C081E001C0F6
:1033500083E08093C2018091C2018091E10083FFEC
:1033600027C08091E20083FF23C08091E100877F26
:103370008093E10082E08093C2011092C3018091AA
:10338000E1008E7F8093E1008091E2008E7F809348
:10339000E2008091E20080618093E20042E060E020
:1033A00080E00E94C5148091F00088608093F00056
:1033B000FF91EF91BF91AF919F918F917F916F910D
:1033C0005F914F913F912F910F900FBE0F901F90E3
:1033D00018952091E4003091E50095E64091EC00CD
:1033E000842F817040FF23C08091E80080FD1DC0C4
:1033F0008091C201882399F0853099F08091EB008B
:1034000085FD11C04091E4005091E5002417350777
:1034100029F3915011F09A01E1CF84E0089582E000
:10342000089583E0089581E0089580E00895409133
:10343000E80042FFDDCF0895EF92FF920F931F93B4
:10344000CF93DF937C018B010E94E919811119C090
:10345000E70101151105A1F08091E80085FD0AC082
:103460008091E8008E778093E8000E94E919882314
:1034700081F307C089918093F10001501109E9CFD0
:1034800080E0DF91CF911F910F91FF90EF90089511
:1034900080E090E00E94352E80E090E00E941F2E98
:1034A000109265040E94D12BEFE2F3E086E0DF0189
:1034B0001D928A95E9F71092290310922803109221
:1034C0002A030C941B27CF92DF92FF920F931F9336
:1034D000CF93DF936C010091CC0180919603082B70
:1034E000C7E0D0E010E0C8010C2E02C0959587958A
:1034F0000A94E2F780FD04C02197A8F7F12C09C0D7
:10350000FC2EB6018C2F0E9484310E9498290197CD
:1035100099F38F2DDF91CF911F910F91FF90DF9045
:10352000CF900895CF93DF93EC010E94631ABE0100
:103530000E9484310E949829DF91CF910895FC0167
:1035400086819781009719F00E94982904C0808194
:1035500091810E94921A92959F70963079F010F4A2
:10356000925001C09A50923068F4803F69F018F48C
:10357000883E40F409C0843F29F406C0883E20F00C
:10358000813F11F080E0089581E008959F92AF920D
:10359000BF92CF92DF92EF92FF920F931F93CF9340
:1035A000DF93CDB7DEB765970FB6F894DEBF0FBED9
:1035B000CDBF8C0185E0F801DE01519601900D929E
:1035C0008A95E1F7F801E28090913D0360913E0316
:1035D00040914003509141034115510531F06F3F37
:1035E00031F481E09F3F19F403C081E001C080E025
:1035F000F82FF1709F2E80FD4EC1F801308121819E
:10360000C380D4807DE3A72E73E0B72EF0903F03F4
:10361000F601E41BF50BFF2009F4EFC08091420393
:10362000E83CF10508F0AAC0482F407F09F05AC0D5
:1036300062131BC0931319C060914303709144033C
:10364000F801468157816417750779F4FE2CE11063
:103650000CC08F70806180934203C5010E940104F9
:1036600080914203F801858353C1CD2831F02F3F6B
:1036700031F481E03F3F19F403C081E001C080E0F4
:1036800080FD03C081E08E2502C080E090E0F82F2D
:10369000F170FF2E80FF1CC080918603409145038E
:1036A000841709F413C190E0FC0153E0EE0FFF1FF3
:1036B0005A95E1F7EA5BFC4F5181251306C0508112
:1036C000531303C05281E51203C001968770E8CFFF
:1036D000FE2CEE2009F41CC180914203816080938E
:1036E000420358C062130FC093130DC040914303AF
:1036F00050914403F801268137814217530719F48A
:10370000EE2009F4A7C0C8010E949F1A882381F106
:10371000EE2071F120914203822F82958F7090E00C
:103720000297A4F080913D0390913E039A87898788
:103730001B86DD86CC862E878091430390914403BF
:10374000988B8F87CE0109960E94010488E0F801CA
:10375000ADE3B3E001900D928A95E1F70E94902CC1
:103760000AC06217C9F0C8010E949F1A811127C0C0
:10377000C8010E940104FF24F394CAC0482F407F6F
:1037800081F78DE393E00E94010488E0F501119236
:103790008A95E9F7F12CBCC09313E5CF4091430320
:1037A00050914403F8012681378142175307D9F617
:1037B000E110D9CF8583C8010E94010466C0EE20C4
:1037C000B9F220914203822F82958F7090E0029788
:1037D0000CF4BCCF80913D0390913E039A83898382
:1037E0001B82DD82CC822E8380914303909144031F
:1037F00098878F83CE010196A7CFE83CF10508F0AA
:1038000044C0FE2CEE2009F4B3CF621330C09313F2
:103810002EC02091430330914403F80186819781A3
:103820002817390721F59091420390FD17C0892F81
:1038300082958F70282F30E02115310579F095831E
:103840002F30310541F08F5F982F9295907F8581C1
:103850008F70892B8583C8010E94010488E0F801DC
:10386000ADE3B3E001900D928A95E1F751C0C80134
:103870000E949F1A81116ACF8091420381608093D8
:103880004203C8010E94010443C088E0F50111927F
:103890008A95E9F73DC0EE2009F46ACFC8010E947D
:1038A0009F1AF82E882309F463CF88E0F801ADE36E
:1038B000B3E001900D928A95E1F780913D039091DC
:1038C0003E030E94921A0E94902C22C0398B2A8BB0
:1038D00089899A890E94921A292F22952F70223065
:1038E00028F49F7039F0811105C00BC0243028F4F2
:1038F0009F7049F4805E883020F0C8010E94010466
:103900009F2CF92C05C0F8019581907F99F7F9CF8C
:103910008F2D65960FB6F894DEBF0FBECDBFDF9139
:10392000CF911F910F91FF90EF90DF90CF90BF90BC
:10393000AF909F9008959E3F61F1292F220F920F23
:10394000990F980F692F669566956695977083E035
:10395000689FB001112440E050E080E0FB01E40FDB
:10396000F51FE353FE4F208130E0092E02C036954B
:1039700027950A94E2F721703327042E01C0220F05
:103980000A94EAF7822B4F5F5F4F4330510531F7BE
:10399000089580E008959E3F59F1292F220F920F3C
:1039A000990F980FE92FE695E695E695977051E007
:1039B00001C0550F9A95EAF783E0E89FF0011124C2
:1039C000E353FE4F20E030E070E04081CB01022E57
:1039D00002C0969587950A94E2F7817081958427B5
:1039E0008523842781932F5F3F4F2330310569F76B
:1039F00008958093CC010C94481A21E030E001C076
:103A0000220F8A95EAF720958091CC0182230C94AD
:103A1000F91C21E030E001C0220F8A95EAF780917D
:103A2000CC01822B0C94F91C809396030C94481AB9
:103A30001092640486E0ECE9F3E0DF011D928A95C0
:103A4000E9F70C94481ACF93DF93CDB7DEB76097B0
:103A50000FB6F894DEBF0FBECDBF29873A874B87DC
:103A60005C876D877E878F87988BCE0109960E9431
:103A7000C61A811151C088E0FE013996DE01119607
:103A800001900D928A95E1F779856A854C855D856F
:103A90004115510531F06F3F31F481E07F3F19F45A
:103AA00003C081E001C080E080FD36C0A0914503E5
:103AB000B0E0CD010196877099272091860330E010
:103AC0008217930781F179836A835D834C8393E046
:103AD000AA0FBB1F9A95E1F7AA5BBC4F98E0FE01C5
:103AE000319601900D929A95E1F7809345030E94DB
:103AF000862C12C028E0829FC00111248A5B9C4F53
:103B00000E94C61A8823E1F08091860390E0019616
:103B1000877099278093860380918603909145034F
:103B20008913E8CF0DC00E94181D10924503109212
:103B30008603EDE3F3E088E0DF011D928A95E9F763
:103B400060960FB6F894DEBF0FBECDBFDF91CF9168
:103B50000895882321F00E94C32B0C94D12B089543
:103B6000882339F090916504892B809365040C9427
:103B7000D12B0895882321F00E94CA2B0C94D12BBD
:103B80000895882339F090916404892B809364040C
:103B90000C94D12B0895882309F45CC0823869F411
:103BA0000E944B2E81FF56C069E38AE993E00E9490
:103BB000052E0E94D12B69E30EC0833891F40E9438
:103BC0004B2E80FF47C063E58AE993E00E94052EF3
:103BD0000E94D12B63E58AE993E00E94F82D0C94B2
:103BE000D12B843869F40E944B2E82FF33C067E4E6
:103BF0008AE993E00E94052E0E94D12B67E4EBCF67
:103C00009CEF980F913A10F4682FE5CF90E2980F4F
:103C1000983050F4877091E001C0990F8A95EAF7C7
:103C2000892F0E94CA2BDBCF9BE5980F933020F49D
:103C300080E090E00C94352E98E5980F973120F4B1
:103C400080E090E00C941F2E803F20F00E944527DA
:103C50000C941B270895CF93882309F49EC0C82F86
:103C60008238B1F40E944B2E81FD97C069E38AE946
:103C700093E00E94052E0E94D12B2FEF81EE94E05D
:103C8000215080409040E1F700C0000069E317C078
:103C90008338E1F40E944B2E80FD7FC063E58AE902
:103CA00093E00E94052E0E94D12B2FEF81EE94E02D
:103CB000215080409040E1F700C0000063E58AE9B0
:103CC00093E00E94F82DCF910C94D12B8438B1F45D
:103CD0000E944B2E82FD61C067E48AE993E00E9456
:103CE000052E0E94D12B2FEF81EE94E021508040D1
:103CF0009040E1F700C0000067E4E1CF8CEF8C0F4B
:103D0000813A80F4ECE9F3E082EA93E02191C21772
:103D1000E1F18E179F07D1F76C2F8AE993E00E949B
:103D2000052ED1CF80E28C0F883068F4C77081E017
:103D300090E001C0880FCA95EAF790916404892B3E
:103D400080936404C0CFEBE5EC0FE33040F4F0E087
:103D5000E859FE4F808190E0CF910C94352EE8E534
:103D6000EC0FE73150F4F0E0EE0FFF1FE559FE4F86
:103D700080819181CF910C941F2EC03F70F08C2FC9
:103D80000E940C28CF910C941B276C2F8AE993E09A
:103D90000E94F82D0E94D12BBFCFCF9108951F9381
:103DA000CF93DF93182F893319F0C0E0D0E002C021
:103DB000C0E5D0E0812F0E942B1E209741F08FE9B3
:103DC0009FE00197F1F700C000002197F6CF812F07
:103DD000DF91CF911F910C94CB1D0895EF92FF922C
:103DE0000F931F93CF93DF938C01CCEDD1E0E12CA7
:103DF000F12CF8018481FFE0EF16F1041CF4882314
:103E000039F002C0811104C09E014091390202C004
:103E10009E0140E060913802809137020E9439256E
:103E20008FEFE81AF80A23969EE1E916F10409F7E4
:103E30000E949C24F801848190E00196817099276A
:103E40008483DF91CF911F910F91FF90EF900895A0
:103E50008F929F92AF92BF92CF92DF92EF92FF929A
:103E60000F931F93CF93DF93EC014C81042F10E04D
:103E70009801D8010E94D0369B01AC010E94E63621
:103E80006B017C01E0E2F0E0E01BF10BA5E5B0E0A6
:103E90009B01AC010E94E6364B015C019F01DF01F2
:103EA0000E94C8369B01AC010E94F1369B01AC0117
:103EB0002C0D3D1D4E1D5F1DC501B4010E9499369C
:103EC000822FF22E99E2921728F093E0299F900119
:103ED00011240DC025E530E0281B3109C901880FE8
:103EE000991F280F391F37FF02C02F5F3F4F3595AD
:103EF0002795122F10959CEDC92E91E0D92E00E048
:103F000085E5E82EEF1801FD02C08E2D01C08F2D32
:103F10009601412F609138020E9439250F5F83E09E
:103F2000C80ED11C0E3179F70E949C248C8181111E
:103F300002C091E003C0803219F49FEF9093120108
:103F400090911201890F8C83DF91CF911F910F9176
:103F5000FF90EF90DF90CF90BF90AF909F908F90A9
:103F600008950F931F93CF93DF93CCEDD1E0FE0123
:103F7000118210821282339682E0E633F807C1F78D
:103F800000E010E08091DA01082E000C990B081770
:103F9000190794F080911101082E000C990B8017DD
:103FA000910754F09E01409139026091380280914E
:103FB00037020E94392503C0198218821A820F5FC6
:103FC0001F4F23960E311105E9F60E949C24809123
:103FD00010019091DA01980F9093DA01209111016C
:103FE000280F20931101121614F49D311CF08195B5
:103FF00080931001DF91CF911F910F910895BF928F
:10400000CF92DF92EF92FF920F931F93CF93DF93A4
:10401000FC01828180FF03C0DD24DA9402C0DD242C
:10402000D3940CED11E0C0E0D0E02EE1B22EF80107
:1040300011821082128294E0E92EF12CC12C809121
:10404000D9018C0D8F312CF06B2D0E946336892F96
:1040500002C087FD825E082E000C990BC817D90795
:1040600091F4809139028E9DA0018F9D500D1124F5
:1040700055954795559547959801609138028091DF
:1040800037020E943925CD0CF1E0EF1AF108B9F69C
:1040900021960D5F1F4FCE31D10549F60E949C2419
:1040A0008091D90191E0D91206C0811102C08DE141
:1040B00007C0815005C090E00196BE010E94853680
:1040C0008093D901DF91CF911F910F91FF90EF90D5
:1040D000DF90CF90BF900895EF92FF921F93CF9300
:1040E000DF93EC018CEDE82E81E0F82E10E08C815E
:1040F00097014091390260913802810F0E94392561
:10410000185F83E0E80EF11C103F89F70E949C24A1
:104110009A818C8190FF02C08F5F01C081508C8397
:10412000DF91CF911F91FF90EF9008950F931F9310
:10413000CF93DF9300D01F92CDB7DEB78C01809173
:10414000DB0181110AC09E012F5F3F4F4FEF6FEFE0
:104150000E9439258A818093DB01F80184818130B6
:1041600051F028F0823061F44091DB010AC0809167
:10417000DB0140E007C06091DB0140E080E003C06C
:1041800040E080E060E00E94D224F801848190E069
:10419000019663E070E00E94853684830F900F9053
:1041A0000F90DF91CF911F910F910895CF93DF93DF
:1041B000EC01E6E3F2E0438162818C810E94CF252D
:1041C0008C818F5F8C83DF91CF910895CF93DF93A4
:1041D000EC01EC81F0E0EA55FC4F4491E6E3F2E0BB
:1041E000628181810E94CF258C818F5F8C83DF91DA
:1041F000CF9108950F931F93CF93DF93843058F599
:10420000653048F5463038F521159CE5390731F41D
:10421000E0911E01F0911F01EF2BE9F08901C42FFD
:10422000D0E0CC0FDD1F9CE0699FC00DD11D112493
:104230009CE3899FC00DD11D1124612FCE0187966B
:104240000E942736602FCE018896DF91CF911F9173
:104250000F910C942736DF91CF911F910F91089504
:104260000F931F93CF93DF93843008F56530F8F4F4
:104270004630E8F4C42FD0E0CC0FDD1F2CE0629F65
:10428000C00DD11D11243CE3839FC00DD11D11240D
:10429000CE0187960E94133690E0182F0027CE019A
:1042A00088960E9413369801282BC90102C080E02D
:1042B00090E0DF91CF911F910F9108958F929F927F
:1042C000AF92BF92CF92DF92EF92FF920F931F9324
:1042D000CF93DF93CDB7DEB72A970FB6F894DEBF42
:1042E0000FBECDBF00EB12E08EE9C82E82E0D82EC3
:1042F00097EBE92EFF24F3942FE0922E3DE9A32EB5
:1043000032E0B32E88248394F601019311936F0158
:104310004AE050E0B701CE0101960E940336F80151
:10432000892D11928A95E9F789819A81F801918303
:1043300080838F8182838D8183838885848389852F
:1043400085838B819C819783868310868A8587FFEE
:1043500003C01686158603C0F801B686A58680FFC1
:1043600002C0F801808681FF04C0F8019085926048
:10437000908782FF04C0F80190859460908783FF46
:1043800004C0F80190859860908784FF04C0F8010C
:1043900090859061908785FF04C0F80180858062D8
:1043A0008087015F1F4FFAE0EF0EF11C87E0E816EF
:1043B00082E0F80609F0A8CF2A960FB6F894DEBF7F
:1043C0000FBECDBFDF91CF911F910F91FF90EF9066
:1043D000DF90CF90BF90AF909F908F900895CF9235
:1043E000DF92EF92FF920F931F93CF93DF93CDB79E
:1043F000DEB72A970FB6F894DEBF0FBECDBF80E5BB
:10440000EDE4F2E0DF011D928A95E9F788E3EAE046
:10441000F4E0DF011D928A95E9F78DE4C82E82E071
:10442000D82E7F0107E611E0F701D182C0824AE071
:1044300050E0B801CE0101960E94033688E0FE01EB
:104440003196D60101900D928A95E1F789859A857A
:10445000D70113969C938E931297BAE0CB0ED11C82
:10446000E7E0EE0EF11C065F1F4F073BF1E01F0770
:10447000D9F62A960FB6F894DEBF0FBECDBFDF91F6
:10448000CF911F910F91FF90EF90DF90CF90089503
:104490008F929F92AF92BF92CF92DF92EF92FF9254
:1044A0000F931F93CF93DF93CDB7DEB72A970FB645
:1044B000F894DEBF0FBECDBF08E614E0E12CF12C6E
:1044C0008FE7C82E83E2D82E9AEAA92E93E2B92E5E
:1044D00021EF822E22E2922EF801D182C082B38295
:1044E000A28295828482F58AE48ABE016F5F7F4F43
:1044F0008E2D0E945032892B29F489859A85F801E6
:10450000938B828BFFEFEF1AFF0A0A5E1F4F88E042
:10451000E816F10409F72A960FB6F894DEBF0FBE2D
:10452000CDBFDF91CF911F910F91FF90EF90DF9062
:10453000CF90BF90AF909F908F9008950F931F934F
:10454000CF93DF9300D000D01F92CDB7DEB78C01A0
:104550009093A3038093A203011580E2180738F516
:10456000802F0E94CB1DC801805E9109089718F02A
:104570000115110571F4C8010E94B4350F900F9018
:104580000F900F900F90DF91CF911F910F910C948E
:10459000BA1DC8010E94B4350F900F900F900F9074
:1045A0000F90DF91CF911F910F910C94A91D8EEF69
:1045B00089838A831B820E94C32D8160782F9D830B
:1045C0008C8349815A816B818D810E945A330F906F
:1045D0000F900F900F900F90DF91CF911F910F913F
:1045E00008950F931F93CF93DF938C01EB0163E446
:1045F00072E08C2F0E945032892B09F040C0DD27D9
:10460000C55CDD4F8881F80110821882833079F013
:1046100048F4813041F1823091F5809145029091CA
:10462000460209C0843051F08530E9F028C08091FD
:104630004702909148020097B1F01BC08091490257
:1046400090914A020097A9F42091430230914402CC
:1046500080914502909146022115310541F0009765
:1046600041F4C90106C08091430290914402009731
:1046700031F0DF91CF911F910F910C949E22DF9129
:10468000CF911F910F910895CF93DF9300D000D069
:104690001F92CDB7DEB79093A3038093A203811539
:1046A00020E2920748F40F900F900F900F900F9018
:1046B000DF91CF910C94E1358EEF89838A8381E07D
:1046C0008B830E94C32D8160782F9D838C834981C9
:1046D0005A816B818D810E945A330F900F900F90F9
:1046E0000F900F90DF91CF910895CF93DF93EC015E
:1046F0000E944423CE01DF91CF910C949E220F9310
:104700001F93CF93DF938C01862F63E472E00E94A6
:104710005032892BD1F4C0914302D09144022097AA
:10472000A1F0F8018081833039F4CE010E94752315
:10473000CE010E94752302C0843038F0CE01DF9193
:10474000CF911F910F910C947523DF91CF911F9101
:104750000F9108950F931F93CF93DF938C01EB017B
:1047600063E472E08C2F0E945032892B09F06DC0F7
:10477000DD27F8018081813041F49185911115C0C8
:104780009285992391F082E010C0823049F4F801BB
:104790008185811107C08285811106C083E005C033
:1047A00086E003C085E001C084E0C55CDD4F8883FE
:1047B0008330B1F028F4813071F0823031F045C09F
:1047C0008430A9F0853079F140C080914502909104
:1047D00046020097A1F5809143029091440220C0C7
:1047E00080914702909148020097E9F028C080919B
:1047F000490290914A02009711F5809143029091ED
:104800004402009749F00E947523809145029091DF
:104810004602009781F013C08091450290914602B4
:10482000009799F00CC08091430290914402009748
:1048300061F00E9475238091430290914402DF91C0
:10484000CF911F910F910C944423DF91CF911F9131
:104850000F91089581152CE5920759F480911E015E
:1048600090911F01892B19F480E090E0089580E079
:104870009CE5089586E290E00C942736CF93C82FEC
:10488000811102C06FEF01C06DE483E290E00E94ED
:104890002736C11102C06FEF01C066EC84E290E0E0
:1048A0000E942736C11102C06FEF01C066E785E2A2
:1048B00090E0CF910C94273680E00E943E2460E087
:1048C00070E0CB010E943A240E94A0310E94743112
:1048D00081E00C943E2483E290E00E9413368D34F4
:1048E00081F484E290E00E941336863C51F485E224
:1048F00090E00E94133691E0863709F090E0892F0E
:1049000001C080E0817008959091360290FF04C04C
:104910009695981740F003C0811105C090E0961756
:1049200010F40C94112761E00C94C626882311F032
:10493000FA0101C0FB0109948091360280FF0AC090
:10494000539A8BB1877F9BB198602FB7F894ECEDA9
:10495000F1E00BC0ECEDF1E011821082128233968F
:1049600032E0E633F307C1F7EBCF32E0E633F3078B
:1049700089F0319148E09BB9000000C037FF8BB946
:10498000330F000000C000C000C08BB900C04A95C2
:1049900091F7EBCF2FBF8FE594E00197F1F700C0BF
:1049A000000008959091360290FF0CC0ECEDF1E00C
:1049B000818360834283339692E0E633F907C1F73F
:1049C0000C949C24089580913602282F269530E07F
:1049D0002115310519F48170826005C02532310539
:1049E00024F081708864809336020895CF92DF921C
:1049F000EF92FF926B017C010E94E324B701A601B4
:104A000088E090E0FF90EF90DF90CF900C943936E3
:104A100080913A02882319F0815080933A02609184
:104A200036027091370280913802909139020C94CD
:104A3000F62480913A02833018F48F5F80933A0213
:104A4000609136027091370280913802909139025C
:104A50000C94F624E6E3F2E083E0808311828FEF8A
:104A600082838383148260817181828193810C941B
:104A7000F624AF92BF92CF92DF92EF92FF920F9304
:104A80001F93CF93DF93E82EF62EE901E42FF0E099
:104A9000611106C0EA55FB4FE4914E2F2E2F71C0D5
:104AA000062F10E0EA55FB4F4491F42FC42ED12C71
:104AB00026E0829FC00111242FEF30E0B9010E944F
:104AC00071365BEA5603C001579F900D11248E0D7D
:104AD000911D8E0D911D582F550F580FD901A01BF8
:104AE000B10BAC9DC001AD9D900DBC9D900D1124EE
:104AF000E92FF59ED0011124AB2FBB277901EA1ACB
:104B0000FB0AEC9CD001ED9CB00DFC9CB00D112477
:104B10005901A51AB108A09E7001A19EF00CB09E8B
:104B2000F00C1124EF2CFF242E193F092C9D80013D
:104B30002D9D100D3C9D100D1124212F623071050B
:104B400091F048F461157105E1F061307105B9F437
:104B5000242F4B2F16C06430710569F040F0663089
:104B6000710579F00CC0242F492FE12F0AC0492F7D
:104B7000EF2F2B2F06C0292FE42F412F02C0292F02
:104B8000EB2F49832883EA83DF91CF911F910F9107
:104B9000FF90EF90DF90CF90BF90AF900895CF93AC
:104BA000DF9300D01F92CDB7DEB79091360290FF11
:104BB0000AC09E012F5F3F4F0E9439254B816981BA
:104BC0008A810E94D2240F900F900F90DF91CF9195
:104BD00008955F926F927F928F929F92AF92BF9251
:104BE000CF92DF92EF92FF920F931F93CF93DF93B9
:104BF00000D01F92CDB7DEB7182F762E042F622E6D
:104C00009091360290FF6DC0E92FE695AE2FB0E08F
:104C1000AD5BBE4F8C9180933B039E7F923061F4DD
:104C20009E012F5F3F4F812F0E9439254B81698163
:104C30008A810E94D22443C0823019F40091390243
:104C40003EC0863019F41091370239C08930D9F34B
:104C50008931A9F5E9518E2F8170582EE695F0E043
:104C6000EA55FA4FA590B4908CEDC82E81E0D82E6D
:104C7000E12CF12CBB249EE1892E912CAE9CC0012D
:104C8000AF9C900DBE9C900D1124B4010E94713612
:104C9000812F511002C0860F01C0861B9601402F44
:104CA000672D0E9439258FEFE81AF80A83E0C80EB5
:104CB000D11C8EE1E816F10409F70E949C241093A0
:104CC00037027092380200933902662051F06091E9
:104CD00036027091370280913802909139020E9419
:104CE000F6240F900F900F90DF91CF911F910F91AD
:104CF000FF90EF90DF90CF90BF90AF909F908F90FC
:104D00007F906F905F900895E6E3F2E0438128E0A2
:104D1000421B08F440E021E0628181810C94E92586
:104D2000E6E3F2E0438128E0420F08F44FEF21E090
:104D3000628181810C94E925E6E3F2E0628128E05A
:104D4000621B08F460E021E0438181810C94E92535
:104D5000E6E3F2E0628128E0620F08F46FEF21E001
:104D6000438181810C94E925E6E3F2E0818121E031
:104D70004381628188500C94E925E6E3F2E0818169
:104D800021E043816281885F0C94E925909136028D
:104D900090FF3DC09170811102C0926006C08532C3
:104DA00010F0986402C0880F982B90933602662307
:104DB00051F06091360270913702809138029091E3
:104DC00039020E94F62460913602669570E04BE04D
:104DD00050E083E191E00E940537892B19F0109291
:104DE0003C0309C081E080933C030E94C32D909353
:104DF00036038093350381E08093380320E04091AF
:104E0000390260913802809137020C94E9250895A7
:104E1000809136028695815009F484E261E00C9419
:104E2000C6268091360286958F5F853208F081E034
:104E300061E00C94C6260E94C32D209131032111FC
:104E400004C020913203222321F090932E038093FB
:104E50002D0320913303211104C020913403222318
:104E600021F090932C0380932B03E0911A05F0918D
:104E70001B05309749F082E080932F030480F58171
:104E8000E02D8FE293E009940895803F39F48091FA
:104E9000320387FF6AC01092320367C0813F29F452
:104EA000809132031816BCF360C090913103823FA9
:104EB00029F497FF5AC01092310357C0833F19F469
:104EC0001916CCF352C090913303893F31F419166F
:104ED0000CF04BC01092330348C08A3F19F497FF7F
:104EE00044C0F8CF8B3F39F48091340387FF3DC035
:104EF000109234033AC08C3F29F480913403181681
:104F0000BCF333C0843F21F4809130038E7F17C0FF
:104F1000853F21F4809130038D7F11C0863F21F4BD
:104F2000809130038B7F0BC0873F21F48091300349
:104F3000877F05C0883F31F4809130038F7E809356
:104F4000300313C08D3F21F480912A038E7F0BC064
:104F50008E3F21F480912A038D7F05C08F3F29F475
:104F600080912A038B7F80932A03809131038111E2
:104F700006C080913203811102C0109229038091F2
:104F80003303811106C080913403811102C0109255
:104F90002803089580912A0380FD16C081FD16C064
:104FA00082FD18C080912803882391F0883290F404
:104FB00028E0829FC001112468E270E00E948536DB
:104FC000862F672B29F007C082E0089584E00895BA
:104FD00081E0089588E0089580912A0380FD14C03F
:104FE00081FD14C082FD16C080912903882381F0C1
:104FF0008E3180F420E5829FC00111246EE170E0C3
:105000000E948536862F089584E1089588E20895E8
:1050100088E0089580E50895803F21F40E94EC2700
:10502000819504C0813F29F40E94EC2780933203CC
:105030000895823F21F40E94EC27819504C0833FAC
:1050400029F40E94EC27809331030895893F19F4D5
:105050000E94CA2705C08A3F31F40E94CA27819561
:105060008093330308958B3F21F40E94CA278195D2
:1050700004C08C3F29F40E94CA278093340308950A
:10508000843F21F480913003816017C0853F21F473
:1050900080913003826011C0863F21F480913003FB
:1050A00084600BC0873F21F480913003886005C085
:1050B000883F31F4809130038061809330030895FC
:1050C0008D3F21F480912A0381600BC08E3F21F433
:1050D00080912A03826005C08F3F29F480912A03C2
:1050E000846080932A03089580E008959091A4013C
:1050F00092FF0DC0282F2871283019F4877F846013
:1051000006C0282F2471243011F48B7F886093FF10
:105110000DC0282F2871283119F4877E846106C0BC
:10512000282F2471243111F48B7E88612091A501F0
:1051300020FF0DC0382F3871383019F4877F816017
:1051400006C0382F3171313011F48E7F886021FF15
:105150000DC0282F2871283119F4877E816106C07F
:10516000282F2171213111F48E7E886194FD877E74
:105170000895F894E82FE295EF70F0E031A1282F20
:105180002F7081E090E001C0880F2A95EAF7982FF0
:105190009095932391A392A1892B82A3789408954B
:1051A0007F928F929F92AF92BF92CF92DF92EF92B7
:1051B000FF920F931F93CF93DF9300D000D01F92E5
:1051C000CDB7DEB7AE014F5F5F4F7A0185E0FA01E0
:1051D00011928A95E9F709E211E06A018EE2A82EA0
:1051E00081E0B82E88248394912CF80180818F3F30
:1051F00009F441C0F894E82FE295EF70F0E021A1A6
:105200008F70A40102C0440F551F8A95E2F7CA01AE
:10521000922F982B91A392A18095892382A37894B1
:1052200000C0EEE2F1E0712C31E021912F3F89F0D6
:10523000A22FA295AF70B0E090968C9190E02F7065
:1052400002C0959587952A95E2F780FD02C0832FCD
:1052500001C080E0782A330F51E0E433F50729F7E5
:10526000F80180818F3F11F00E94B928F0EAFA9589
:10527000F1F7F60170820F5F1F4FFFEFCF1ADF0AC1
:10528000A016B10609F0B1CF45E050E0B7018FE9B3
:1052900091E00E94123711E0009709F410E0892B89
:1052A00089F085E0F701AFE9B1E001900D928A95B0
:1052B000E1F781E0809399030E94C32D90939803B6
:1052C00080939703809199038823F1F0809197034D
:1052D000909198030E94A82D0597B0F080919F01AE
:1052E0008093B0018091A0018093B1018091A101D0
:1052F0008093B2018091A2018093B3018091A301B8
:105300008093B40110929903812F0F900F900F900A
:105310000F900F90DF91CF911F910F91FF90EF9021
:10532000DF90CF90BF90AF909F908F907F90089527
:10533000CF93DF938238910569F1B0F48133910501
:1053400009F46FC048F48932910509F465C08A32C6
:10535000910509F46BC08AC08533910509F457C0E3
:1053600089339105B9F082C0833E910571F138F41B
:10537000803E9105B1F0823E910511F177C0863EE5
:105380009105B9F1873E9105C9F1843E910509F077
:105390006DC024C02091A40120FD53C021FD51C047
:1053A00065C08091A40180FD46C08091A50180FF69
:1053B00048C08091A40184FD50C183EE90E04FC1AC
:1053C0008091A40182FF3AC0F4CF8091A40182FDB4
:1053D00035C08091A50180FD34C0EBCF8091A5013F
:1053E00081FF35C08091A40184FD37C187EE90E034
:1053F00036C18091A40183FF27C0F4CF8091A4011E
:1054000083FD22C08091A50181FD21C0EBCF809159
:10541000A40185FD1FC021C08091A40185FD1DC090
:1054200019C08091A40186FD1BC01DC08091A401FC
:1054300086FD19C015C089E390E011C182EE90E0AD
:105440000EC180EE90E00BC186EE90E008C184EEC4
:1054500090E005C189E290E002C185E390E0FFC0E1
:105460008AE290E0FCC081E390E0F9C0811531E56B
:10547000930708F069C0811540E59407F0F09C019E
:1054800074E0369527957A95E1F7922F9370482F1F
:10549000437021E030E002C0220F331F4A95E2F74B
:1054A0003C68392B982F9F709695969540E2949F73
:1054B000C0011124822B932BD2C0883E910568F540
:1054C000803E910508F0CBC0883A9105B8F4853A42
:1054D000910548F0855AE82FF0E0E859FE4F8081A9
:1054E00090E09064BCC08130910509F4B3C008F429
:1054F000B4C08430910508F4B0C0B1C08F3B9105B1
:1055000008F0ABC0885AE82FF0E0EE0FFF1FE55916
:10551000FE4F808191819464A2C0811520E29207A0
:1055200058F4811531E0930708F099C0803F910548
:1055300008F493C0906593C0811540E4940708F483
:105540008CC09F70906A8BC0811525E5920708F08A
:1055500042C0811534E5930728F0982F8827846F7F
:10556000906A7DC0811543E59407B0F09C012370DB
:10557000332741E050E002C0440F551F2A95E2F75F
:10558000282F2695269580E2289F90011124CA0194
:10559000822B932B9A6863C0811522E5920728F429
:1055A000982F8827816F906A5AC09C0123703327F7
:1055B00041E050E002C0440F551F2A95E2F7282F22
:1055C0002695269580E2289F90011124CA01822BFE
:1055D000932B9C6844C0EC01811539E59307A8F42E
:1055E0008115984528F09C2F8827806F906A37C0D6
:1055F000C11586E5D80788F58C2F0E9476288F7113
:1056000090E0982F882790622AC081152AE592079A
:1056100090F48C2F8F700E94762894E0D695C795D1
:105620009A95E1F7CF70D0E0DC2FCC27D0699E01AE
:10563000282BC90114C090568115904270F48D2F0B
:105640008F710E947628282F2F71CE0199279062A2
:10565000922B05C081E090E002C080E090E0DF91F5
:10566000CF910895CF9384E090E00E941336C82F25
:1056700082E290E00E9413362C2F30E0A901582BD3
:10568000CA01CF91089580E090E00E942136893EC2
:105690009E4F11F40C946B2480E0089569EE7EEF28
:1056A00080E090E00E94453660E082E090E00E9459
:1056B000273660E083E090E00E9427361092960340
:1056C00060E084E090E00E94273660E082E290E0B3
:1056D0000E94273660E085E090E00E94273660E077
:1056E00086E090E00E9427366FEF87E090E00E940E
:1056F000273640E050E0BA0188E090E00E94393659
:1057000060E08DE090E00E94273640E050E0BA0172
:1057100088E190E00E94393660E087E190E00E94E5
:10572000273640E050E0BA018CE190E00E94393623
:1057300060E070E080E290E00E94453640E050E09A
:10574000BA0188E190E00E94393680E00E943E2450
:105750000E945C2440E050E0BA018FE090E00E949B
:10576000393640E050E0BA0183E190E00C943936DC
:1057700080919503882331F0109295031092940341
:1057800010929303089580959091650489238093E6
:10579000650408958095909164048923809364043E
:1057A00008959091640480916504892B80939A03F5
:1057B00080919503882311F10E94C32D20919303BA
:1057C00030919403821B930B8838934110F00E9410
:1057D000B82B90919A0380919503892B80939A031B
:1057E000ECE9F3E097E080E0915029F02191222349
:1057F000D9F38F5FF9CF81110E94B82B80915A04A1
:10580000809590919A03892390915B04892B8093D2
:105810009A0348E050E06BE873E08AE993E00E9465
:105820001237892BA9F088E0EAE9F3E0ABE8B3E0AE
:1058300001900D928A95E1F7E0911A05F0911B0510
:10584000309731F00280F381E02D8AE993E00994EA
:10585000089510928A031092890310928803089584
:1058600020918A038095822380938A03982F9770D2
:1058700099F430E0482F082E000C550B24173507FB
:1058800059F09091A50192FD07C085958595859564
:105890000E94FD1C0C94292C0895CF93C091A50162
:1058A000C2FB992790F9981799F080FBC2F9C09331
:1058B000A5016091A40184E090E00E9427366C2F3E
:1058C00082E290E00E94273682E0CF910C94302C47
:1058D000CF9108959091A50192FD10C098E0899F05
:1058E00090011124262B20938A030E94091D0E94F7
:1058F000C32D909389038093880308950C94091D08
:105900008091870381111092870308958091860307
:1059100090914503891719F08F5F8770FBCF089529
:105920001F93CF93DF938091420382958F7009F08C
:105930005CC080913F03882309F457C0809186039F
:105940001091450360913D0370913E03C091400367
:10595000D091410391E06F3F09F090E0292F81172A
:1059600009F443C0209721F07F3F21F030E003C0CD
:1059700031E001C0322F90E030FD34C0FC0133E053
:10598000EE0FFF1F3A95E1F7DF01AA5BBC4F1196BE
:105990003C911197371326C03C91361323C01296C1
:1059A0003C91129731111EC013964D915C91149742
:1059B0004C1B5D0B483C5105A8F4809142038F704D
:1059C000806180934203E55BFC4F80818F70806132
:1059D00080838DE393E00E940104DF91CF911F91BA
:1059E0000C94862C01968770BACFDF91CF911F91CE
:1059F00008958091B701089524E02093E9002FEFE6
:105A00003091E800215035FD06C035ED3A95F1F7AB
:105A100000002111F5CF2091E80025FF0BC040E0E8
:105A200050E066E070E00E941C1A8091E8008E77DA
:105A30008093E8000895CF93DF9321E02093E9005D
:105A40002FEF3091E800215035FD06C035ED3A9535
:105A5000F1F700002111F5CF2091E80025FF14C0D7
:105A6000EC0140E050E068E070E00E941C1A809178
:105A7000E8008E778093E80088E0FE01A8EBB1E0B3
:105A800001900D928A95E1F7DF91CF91089580936F
:105A9000230570932505609324058091C20184300D
:105AA000F9F48093E9008FEF9091E800815095FD23
:105AB00006C095ED9A95F1F700008111F5CF809120
:105AC000E80085FF0DC040E050E063E070E083E255
:105AD00095E00E941C1A8091E8008E778093E80080
