:100000000C94F6030C942E040C942E040C942E04E1
:100010000C942E040C942E040C942E040C942E0498
:100020000C942E040C942E040C94241C0C94601B31
:100030000C94D52A0C942E040C942E040C942E04AB
:100040000C942E040C942E040C942E040C942E0468
:100050000C942E040C94882A0C942E040C942E04D8
:100060000C942E040C942E040C942E040C942E0448
:100070000C942E040C942E040C942E040C942E0438
:100080000C942E040C942E040C942E040C942E0428
:100090000C942E040C942E040C942E040C942E0418
:1000A0000C942E040C942E040C942E048405FD054F
:1000B00006060E0617061F06280630060209020964
:1000C00031093109BB09D709020B020BE209560AB3
:1000D000670A670A5E06FD0506060E0617061F0676
:1000E000280630060C1126112C115D125D126411C8
:1000F00075118811C911CE115D125D125D12D611F4
:1001000066198D19421B8D19421BD919FC19421B06
:10011000FD1A0D1BFD377A585A000004E6D6B44686
:100120000200210116000000742FE5A3E001BA00CF
:10013000D15D003D8889C65436C3174FE4EF0FBA2E
:1001400005F6E42125FF4D4BEFC04D1523653373B4
:10015000C2D58D9A0F078516F146C9965794F7E6D2
:1001600019DCC2B64C3D2C81A28548F44585224B52
:1001700067036F2D4D4A76B30043E685E05F6A6AF8
:10018000A21A4AD9AA0685640FF6D3A6F50A61B267
:100190006B61A87CC74F964AED01C7631D122CD135
:1001A00028087C95D88160E61BE030ED7883233504
:1001B0002494B88F01B1DDADCCB0C9664DB1F61F46
:1001C000340696EE0E66A99251E7244507353707A7
:1001D000E0C2F0AEC1048AFD53C6F26F2968BF0BBE
:1001E0002AB24E3FD3E1AEEE314F4BF954A05170DD
:1001F00031D15036F5602FEB19B867C458D98064F7
:10020000448CEF040000000015B2482D801511F851
:100210000001ED01BB030000F382DA9CB1C467FB6F
:10022000020000000004595A00010101010101010E
:10023000010102020202020202020203030303039B
:10024000030303040404040404040505050505066A
:100250000606060607070707070808080809090928
:10026000090A0A0A0B0B0B0C0C0C0D0D0D0E0E0ED1
:100270000F0F0F1010111111121213131414151562
:1002800016161717181819191A1A1B1B1C1D1D1ED4
:100290001E1F202021222223242425262627282928
:1002A000292A2B2C2D2D2E2F303132323334353656
:1002B0003738393A3B3C3D3E3F4041424344454656
:1002C0004748494A4C4D4E4F505153545556585932
:1002D0005A5B5D5E5F616264656668696B6C6D6FD9
:1002E0007072737577787A7B7D7E8082838587884C
:1002F0008A8C8E8F91939596989A9C9EA0A2A3A586
:10030000A7A9ABADAFB1B3B5B7BABCBEC0C2C4C686
:10031000C9CBCDCFD1D4D6D8DBDDDFE2E4E7E9EB42
:10032000EEF0F3F5F8FAFDFF05010902A1018502DF
:100330000901A100050919012905150025019505E7
:1003400075018102950175038101050109300931AB
:100350001581257F95027508810609381581257F4D
:10036000950175088106050C0A38021581257F95CF
:100370000175088106C0C005010980A10185031926
:10038000012AB700150126B700950175108100C03C
:10039000050C0901A101850419012AA002150126F5
:1003A000A002950175108100C005010906A1018513
:1003B00006050719E029E715002501950875018153
:1003C000020507190029EF1500250195F075018137
:1003D0000205081901290595057501910295017518
:1003E000039101C00660FF0961A1010962150026A1
:1003F000FF009520750881020963150026FF00950E
:100400002075089102C005010906A101050719E040
:1004100029E71500250195087501810295017508E8
:1004200081010507190029FF150026FF00950675B3
:1004300008810005081901290595057501910295A6
:100440000175039101C009025B00030100A0FA09D4
:1004500004000001030101000921110100012240F3
:1004600000070581030800010904010002030000E0
:10047000000921110100012222000705820320004A
:100480000107050303200001090402000103000025
:100490000009211101000122BC000705840320008E
:1004A000011201000200000008504B41110200013E
:1004B0000203011C037600690061006C003A0066CB
:1004C0000036003400630032006200330063000035
:1004D000000E0342004D0034003000560032000090
:1004E0000018034B0050002000520065007000759A
:1004F0000062006C0069006300000004030904004E
:100500001000200011012100120222001303230019
:1005100014042400150525001606260017072700D9
:1005200018082800190929001A0A2A001B0B2B0099
:1005300040305000413151004232520043335300A9
:100540004434540045355500463656004737570069
:1005500048385800493959004A3A5A004B3B5B0029
:100560007060800071618100726282007363830039
:1005700074648400756585007666860077678700F9
:1005800078688800796989007A6A8A007B6B8B00B9
:10059000A090B000A191B100A292B200A393B300C9
:1005A000A494B400A595B500A797B700A898B80083
:1005B000A999B900AA9ABA00AB9BBB2B0014001AE8
:1005C000000800150017001C0018000C0012001392
:1005D000002A00290004001600070009000A000B89
:1005E000000D000E000F0033003400E1001D001B61
:1005F0000006001900050011001000360037003811
:100600000028003900E000E200E30001512C000066
:100610000002515000510052004F00005CC25CC308
:100620005CC55CC65CC75CC85CC95CCA5C0100A6F2
:100630005DA75D01001E001F002000210022002395
:10064000002400250026002700010035021E021F9D
:10065000022002210222022302240225022602276E
:100660000201002D002E002F00300031000100009B
:10067000000100010001004B004E000100010001DB
:100680000001000100010001000100010001000162
:100690000001000100010001000100010001000152
:1006A0000001000100010001000100010001000142
:1006B0000001000100010001000100010001000132
:1006C0000001000100010001000100010001000023
:1006D0000001000100010001000100010001000112
:1006E0000001000100010001000100010001000102
:1006F00000010001000100010001000100010001F2
:1007000000010001000100010001000100010001E1
:1007100000010001000100010001000100010001D1
:1007200000010001000100010001000100010000C2
:1007300000010001000100010001000000000000B4
:1007400000000000000000000000000000000000A9
:100750000000000000000000000000000000007E1B
:100760000F00D4FFFFFFC70000007800000000006A
:100770000000002A2B2800000000000000000000FC
:1007800000000000000029000000002C1E34202181
:100790002224342627252E362D3738271E1F2021C8
:1007A00022232425263333362E37381F0405060727
:1007B00008090A0B0C0D0E0F101112131415161741
:1007C00018191A1B1C1D2F3130232D35040506075F
:1007D00008090A0B0C0D0E0F101112131415161721
:1007E00018191A1B1C1D2F3130354C0011241FBE47
:1007F000CFEFDAE0DEBFCDBF04B603FE18C08091B4
:10080000320690913306A0913406B09135068730B8
:10081000904BA740B04B59F4109232061092330619
:100820001092340610923506E0E0F8E3099512E0E4
:10083000A0E0B1E0E6E4FCE602C005900D92A6332C
:10084000B107D9F726E0A6E3B2E001C01D92A233BA
:10085000B207E1F70E94910B0C9421360C94000032
:100860006F927F928F929F92AF92BF92CF92DF92C0
:10087000EF92FF920F931F93CF93DF93CDB7DEB725
:1008800029970FB6F894DEBF0FBECDBFFC01808163
:10089000918123813481232B31F09F3F31F491E00A
:1008A0008F3F19F403C091E001C090E090FD24C790
:1008B0007F0185E0DE01119601900D928A95E1F7A6
:1008C000D70112962C9189819A81222349F00E94A6
:1008D0006126182F682F89819A810E948E2803C073
:1008E0000E945E28182F69817A81812F0E94D42D61
:1008F0008C01F7018281811106C0D70112968C917B
:1009000081113EC018C180910C0190910D0101969A
:10091000A1F335E2C32E35E0D32EA12CB12C9924BE
:10092000939480910C0190910D018A159B052CF3F5
:10093000F60186818823E9F08185928508171907D9
:1009400039F480912305909124050817190789F03F
:10095000D6011F969C921F971C961C930E931B9773
:10096000C6010E94DA2BC60106960E94932B1092B4
:100970002205BFEFAB1ABB0AE6E1CE0ED11CD1CFE8
:10098000C80182519F45409708F0ADC08FEF93E0BA
:100990000E9448358111BCC0025127EFA22EBB2412
:1009A000B394002379F0A114F4E0BF0609F4B0C0B9
:1009B000C5010E944835811101C001502FEFA21AD4
:1009C000B20AEFCF1E821F8218861986CC24CA94E1
:1009D00085010F5F1F4FC5010E9448358E831F821E
:1009E000882309F495C0813009F078C0450182E080
:1009F000880E911CC8010E944835D82E8F83882309
:100A000009F486C08FEF8D0D833050F40E5F1F4FB9
:100A1000C4010E9448358887811160C05801D8CF31
:100A20008BEF8D0D833070F5350193E0690E711CED
:100A3000C4010E9448358887811102C08301EECF2E
:100A400085010C5F1F4FC3010E94483589878823A9
:100A500029F3288539852130AFEF3A0718F0922F16
:100A600080E001C0C901B6E0DB1631F0E7E0DE1638
:100A700031F00E94DC20D2CF0E949020CFCF0E9484
:100A80003D20CCCFF4E0DF1611F08401C7CFC401C4
:100A90000E944835D82E85010C5F1F4FC501039673
:100AA0000E944835DD20A1F1882391F1282F30E004
:100AB00021503109C29EA001C39E500D11248D2DDD
:100AC00090E00197840F951F019708F4A7CFAFE935
:100AD000BFE01197F1F700C00000F6CFCE010696F7
:100AE0000E9453319BCF0031EFE51E0739F00131F1
:100AF000FFE51F0709F0E5C082E001C081E00E9428
:100B0000CB280E94722E04C0F70182818111D6C0C9
:100B10008091CC04877009F4EFC5D70112968C91AF
:100B2000882309F4E9C58091E10582FDE5C582E0ED
:100B30000E943324E1C50031FFE51F0721F481E065
:100B40000E94BF28DECF01312FE5120711F482E0A9
:100B5000F7CF680127E5D21A8FEFC816D10411F03C
:100B600008F040C06EE075E08C2D0E94822C892B2D
:100B7000C9F586E18C9DF0018D9DF00D1124EB5D92
:100B8000FA4F86818130C9F480910E0590910F054E
:100B9000892B41F18091100590911105892B11F15C
:100BA0008091120590911305892BE1F48091140531
:100BB00090911505892B49F015C0823099F48091E8
:100BC000120590911305892B69F026E12C9DC00137
:100BD0002D9D900D11248B5D9A4FDC0150961C9237
:100BE0000E94DA2BF801E65AFD45E830F10508F0DD
:100BF0006FC0EA5AFF4F0C94D535D70112968C91ED
:100C0000882309F485CF0E94021F82CFF7018281D9
:100C1000882309F47DCF0E94F01E7ACFD701129667
:100C20008C91882309F474CF0E94E71E71CFF701DD
:100C30008281882309F46CCF0E94DB1E69CFD70123
:100C400012968C91882309F463CF0E94CF1E60CF47
:100C5000F7018281882309F45BCF0E94C31E58CF1D
:100C6000D70112968C91882399F10E94B71E30C04B
:100C7000D70112968C918111CFC006318CE51807EF
:100C800009F425C28091210582720A3CFCE51F0708
:100C900009F420C508F05AC2053C9CE5190709F47F
:100CA00005C508F0D7C4033CBCE51B0709F4F4C430
:100CB00008F0F7C4023C1C4509F058C20E945C1FB2
:100CC00027CFF801E65AFD45E830F10508F4BCC429
:100CD000C80197558F3F910511F008F054C020913D
:100CE0000C0130910D012817390724F490930D0160
:100CF00080930C01F701228136E1389F5001399F22
:100D0000B00C1124C5018B5D9A4F6C01DC0150962B
:100D10002C935097928116968C911697992341F1B6
:100D20001A961C930E9319978F5F16968C930E94B8
:100D3000C92AF601968785878091EF048783909171
:100D4000220580912105892B80870190F081E02D7B
:100D5000309749F0D60154966D917C915597C50115
:100D6000855D9A4F099510932405009323050BC0C8
:100D7000882349F0F6018189882329F0C501855D22
:100D80009A4F0E94932B033FFCE51F0769F198F4EB
:100D9000083D8CE51807F9F0093D9CE51907B1F10C
:100DA000073DACE51A0709F063CF06E221EE41EEFC
:100DB00067ED7CE515C0053FBCE51B0709F1D0F0E8
:100DC000063FFCE51F0709F053CF07E225EE46EE8C
:100DD00066EF7CE505C007E225EE45EE68ED7CE5B3
:100DE000C7010E94FF2B94CE06E221EE40EE63EF96
:100DF0007CE5F6CF07E225EE44EE64EF7CE5F0CF2C
:100E000006E221EE42EE65EF7CE5EACF08E221E062
:100E100045EE69ED7CE5E4CF109220050330BDE599
:100E20001B0758F40A3FECE51E0780F4C801825006
:100E30009C45449708F035C109C00136FDE51F0700
:100E400029F0053A2DE5120709F02BC10E948D23E8
:100E50009093E1058093E00501318CE5180709F4D2
:100E6000C6C008F042C00930ACE51A0709F49BC0BF
:100E700000F50530ECE51E0709F485C078F4033071
:100E80002CE5120709F478C008F07AC002301C453E
:100E900009F0F7C08091E0058160F1C00730ACE552
:100EA0001A0709F478C008F07AC08091E0058061E3
:100EB000E6C00D30ECE51E0709F487C058F40B308E
:100EC0002CE5120709F479C008F07BC08091E00599
:100ED00088606FC00F309CE5190709F480C008F0E6
:100EE00082C08091E005877FCAC00D3FBCE51B072B
:100EF00009F471C000F50531FCE51F0709F485C050
:100F000068F403318CE5180709F475C008F095C042
:100F10000E94DA288091E0058F77B1C00B3FACE5E5
:100F20001A07A9F108F054C00A3F1C4509F0A9C0EE
:100F30008091E10540C00130FDE51F0709F489C03B
:100F400058F40F3F8CE5180709F45AC008F069C03F
:100F50008091E10582602FC00136ADE51A0709F4E2
:100F60007EC0053ABDE51B0709F483C002301D456C
:100F700009F087C060E06EC08091E00582607FC0AC
:100F80008091E00516C08091E005886078C080916E
:100F9000E10582604FC08091E005806270C0809161
:100FA000E00580646CC00E94DA288091E0058068CA
:100FB00066C0846064C081603DC08091E0058E7F22
:100FC0005EC08091E0058D7F5AC08091E00516C01B
:100FD0008091E10518C08091E1058D7F2BC0809143
:100FE000E0058F7E4CC08091E0058F7D48C08091E8
:100FF000E0058F7B44C08091E005877F8B7F3FC0F9
:101000008091E1058D7F8E7F15C08091E00582FB88
:10101000222720F991E0922790FB82F990FB83F937
:101020002EC08091E105982F909591708E7F892B2D
:1010300090FB81F98093E10524C00E94DA28809119
:10104000E00587FB222720F991E0922790FB87F9A2
:1010500016C061E08EE090E00E94663512C080917B
:10106000E00584FB222720F991E0922790FB84F988
:1010700006C08091E005982F909590FB80F98093B1
:10108000E0056091E0051091E10584E090E00E94A8
:101090006635612F82E290E00E9466350E94DA2870
:1010A00037CD0631BCE51B07F9F4809121058A7A1A
:1010B00091E009F490E090933802882311F065E301
:1010C00001C069E281E794E00E94262B0AC080916A
:1010D0003802882309F4BCC265E381E794E00E94EA
:1010E000FE2A0E94E92414CD0A35FDE51F0741F1CF
:1010F00050F401158CE51807A9F00E3D1C45B1F51B
:101100000E94A92305CD0B35ADE51A07D9F00C35A2
:101110001D4561F58091E10582FB882780F991E00A
:10112000892711C00E94DA28EFEFF4E32CE0E150A8
:10113000F0402040E1F700C000000E94642AE8CCA3
:1011400081E001C080E00E94502410C00E3CECE51C
:101150001E0709F4CDC208F48FC2063DACE51A079C
:1011600008F494C20D351D4509F4D2CCF7018281F3
:1011700000811181882349F0C8010E946126D82E80
:10118000682FC8010E948E2804C0C8010E945E28F2
:10119000D82EB8018D2D0E94D42D0E94F3218C01F0
:1011A000A82EF701D280C580C2949FE0C922809109
:1011B000CC048770B9F0DD20A9F0812F807F8034C6
:1011C00021F080E2800F883068F08091E10582FD97
:1011D00009C082E00E9433248091CC048770BB2434
:1011E000B3948111B12C912E92948FE09822892D85
:1011F00090E08C30910508F005C2FC01E25AFF4FE7
:101200000C94D535812F807F1F70882311F01295A3
:10121000107FDD20B9F0112309F4DCC180E2800FDA
:10122000883010F0A11006C080912105182B109372
:10123000210505C080912205182B109322050E94DC
:10124000E924C8C1802F0E941129112309F4DAC1B1
:10125000005E812F083070F1AA2061F10E941E24E7
:101260002BC0812F807F1F70803211F01295107F6C
:10127000802FAA2029F0F1E0AF1609F45EC069C002
:101280008091E10582FF1BC0DD2069F0112339F058
:1012900080912105182B109321050E94E92480E0FC
:1012A0000E944329AFC180E00E941129112309F453
:1012B000A9C1812F0E9425240E94E924A3C1DD2019
:1012C00031F1CC20F1F021E0C2120FC08091EF0487
:1012D000182B181709F496C10E94C92A9093EE049E
:1012E0008093ED041093EF048DC185E0C81209C00E
:1012F0000E9413248091C9041817C1F11093C904E6
:1013000035C08091EF04812B0E9407297BC1CC203E
:1013100051F091E0C9120DC080912105812309F49B
:1013200071C10E946D240E941324812F0E94002904
:1013300069C1A5E0CA12F7CF65C1DD2029F0B5E08B
:10134000BC1508F45FC112C0E4E0EC1508F45AC102
:10135000ECCFDD2069F0CC2049F0D70115968C91B7
:10136000159780FF37C18F7015968C93812FCCCF46
:10137000C11035C1DACF812F86958695837019F01B
:10138000813059F03FC1DD2019F0C801937002C0CF
:1013900080E090E00E94712B3BC1DD2019F0C80174
:1013A000937002C080E090E00E945B2B31C1802FDF
:1013B000DD2019F00E94D53302C00E940D330E9437
:1013C000991726C1812F8370A9F5D1101FC1402F15
:1013D000429546954770440F440F802F8F7090E0E0
:1013E0009C01042E01C0220F0A94EAF704FF08C0F2
:1013F0008FE090E001C0880F4A95EAF7809501C020
:1014000080E0169516951370123069F088F490916B
:10141000F004113019F0822B892302C0922B892B02
:101420000E94D628F3C0822B9091F0048927F8CF30
:10143000822BF6CFDD2019F0812F817001C08695B7
:10144000882309F4E3C0402F429546954770440F26
:10145000440F802F8F7090E09C01042E01C0220F5A
:101460000A94EAF704FF08C08FE090E001C0880FFB
:101470004A95EAF7809501C080E01695169513709D
:10148000123059F078F490912706113019F0822B20
:10149000892309C0922B892B06C0822B90912706A5
:1014A000892701C0822B0E94BB28B0C01F70DD209D
:1014B00039F0812F0E94CB28802F0E940729A6C0D7
:1014C000802F0E940029812F0E94BF289FC0802F5B
:1014D00092EFA91689F19A1538F0A0EFAA1659F0E3
:1014E000B1EFAB1611F171C0E3EFAE1661F1F4EF9D
:1014F000AF16B9F06AC0DD2079F024E02C1508F4AD
:1015000081C01F7181E090E001C0880F1A95EAF751
:1015100090912706892721C085E08C1508F472C0B8
:10152000F0CF8091E10582FF1BC0DD2039F0812FD3
:101530008F710E94CB2866C0DD20C9F3812F8F7187
:101540000E94BF285FC0DD2039F01F7181E001C01B
:10155000880F1A95EAF701C080E00E94BB2852C0AC
:10156000DD20D9F08091C9040E9425248091CC040B
:101570008770843039F40E942C24812F8F710E944F
:10158000BF2860C094E09C1508F45CC01F71812FD7
:101590000E94CB2863E0812F11C09091210580919A
:1015A000C904892B80932105A4E0AC1550F40E9456
:1015B0002C240E946D2464E0812F8F710E944F259E
:1015C00041C081E00E9433243DC0DD2029F0CC20C1
:1015D00009F4ADCF802F64CECC2009F4AFCF89338E
:1015E00041F4BFEFE7EEF3E0B150E040F040E1F747
:1015F00004C08FE39CE90197F1F700C00000802F41
:101600000E94112988EF890D843010F40E94872BE5
:10161000BB2009F471C08091CC0480FD6DC0D7015E
:1016200012961C928595859585950E94CB28C701B9
:101630000E9430048091CC048595859585950E9403
:10164000BF285AC0B12CE2CFE659FF4F0C94D535D4
:1016500069E243CD073C2CE5120791F160F1083CAB
:10166000ACE51A0791F1093C1C4509F07FCD47EB29
:101670005EE163EC7EE137C00C3C2CE5120779F1AA
:10168000A8F54EE25DE16CE37DE12DC0003D1C4517
:1016900008F03ECA8DE02DC049EF5EE162E07FE1D7
:1016A00022C042E05FE169EF7EE11DC047EE5EE1EE
:1016B00060EF7EE118C040EF5EE167EE7EE113C0AF
:1016C0004FEC5EE16BED7EE10EC04BED5EE16FEC49
:1016D0007EE109C043EC5EE167EB7EE104C04CE3D0
:1016E0005DE16EE27DE10E94561F12CA81E001C0F9
:1016F00085E00E94592E0CCA29960FB6F894DEBFD9
:101700000FBECDBFDF91CF911F910F91FF90EF9052
:10171000DF90CF90BF90AF909F908F907F906F9011
:101720000895CF93DF93CDB7DEB7E4970FB6F89463
:10173000DEBF0FBECDBF84B7877F84BF0FB6F894DE
:10174000A89580916000886180936000109260008D
:101750000FBE90E080E80FB6F894809361009093FC
:1017600061000FBE85B7806885BF85B7806885BF7B
:1017700087E991E290933702809336020E94F02D20
:101780000E94A41B0E94C31B8091E200846080938E
:10179000E20078948091F9058823A1F01091E90086
:1017A0001F709091EC00892F817090FD80E8182BBC
:1017B0001092E9008091E80083FD0E947E181F705E
:1017C0001093E90082E084BD93E095BD9AEF97BD48
:1017D00080936E000E943D1F811102C00E942E1F47
:1017E00000E211E05CE2E52E51E0F52ED8018D918A
:1017F0008D018F3F11F00E94DC21E016F106B1F758
:101800000CE211E040E3E42E41E0F42EF801819176
:101810008F018F3F11F00E94DC21E016F106B1F735
:1018200088E0EFE4F2E0DF01282F1D922A95E9F726
:10183000E9E3F2E0DF011D928A95E9F70E949E2319
:10184000811102C00E94A92382E090E00E944835E5
:10185000809341020E948D239093E1058093E005DF
:101860000E946525EFE3FCE93197F1F700C0000025
:101870000E94652580914F0280FF08C06FEF7FEFC7
:1018800080E090E00E9484350E94642A83E090E02A
:101890000E9448350E94D6280E94DE1D1092FE0547
:1018A000E7E1F6E087E296E02FEF3FEF21933193F7
:1018B0008E179F07D9F710928F02E8EAF2E088EBC3
:1018C00092E02FEF3FEF219331938E179F07D9F7C7
:1018D0000E949E23811104C00E94A9230E945F14CC
:1018E00046E050E06CE170E089E296E00E94383515
:1018F00010922806809129068C7F11F40E945F14B3
:1019000080E091E09093D8058093D70533243394F9
:101910008091F905853009F061C000E433E0F32ED1
:1019200010E18091F905853009F052C08091F905E8
:10193000843009F439C00E946A1F8091BC02811171
:101940000DC00E94451510921001809129068370E8
:1019500080930F010E94A71DF0921401F1E0F09313
:10196000BC021092DB0528E130E00FB6F894A89590
:10197000209360000FBE0093600083B7817F846076
:1019800083BF83B7816083BF7894889583B78E7F48
:1019900083BF0FB6F894A89580916000886180930A
:1019A0006000109260000FBE80918502882309F4C8
:1019B000B8CF0E946525EFE4F2E081919191892BE7
:1019C00009F07FC587E592E08E179F07B1F7A9CF91
:1019D0000E94DA280E94872B1092BC020E94652583
:1019E00081110E94BD2AEFE4F2E0A2E4B2E000E03F
:1019F00010E0402FA190B1908D919D918A259B255B
:101A0000009709F4AEC0F12CCC24C394D12C9C01D6
:101A10002C213D21232B09F49EC0FBA64CA7AC2012
:101A2000BD2081E0A114B10409F480E08DA70E94DB
:101A3000C92A8160782F9FA78EA74BA55CA56DA5AD
:101A40008FA50E943332F801EE0FFF1FEE5BFD4FB2
:101A500080819181C826D926D182C082AB2889F0A5
:101A60008CE0809FF001819FF00D1124E858FE4F1B
:101A7000EF0DF11D80818F3F21F0282EDD24D394BE
:101A800001C0D12C0D2D10E080918F02D801A80F3C
:101A9000B11D1997ACF188E090E07C01E01AF10AE1
:101AA000B8016F5F7F4F61577D4FA70180E992E0DA
:101AB0000E941136B801675F7F4F61577D4FA701C4
:101AC00088E992E00E941136A701440F551FB80122
:101AD000660F771F675E7F4F61577D4F88EA92E000
:101AE0000E941136B8016F5E7F4F61577D4FA7018D
:101AF00080EA92E00E94113688E08D1980938F026F
:101B000080918F0290E0A22DB0E09D01220F331F43
:101B100028553E4FAA0FBB1FBD0167557E4F41E0C0
:101B2000480F9D15A8F490E0FC01E157FD4FD90145
:101B30005C915183DB015C915187218A880F991F49
:101B4000FC01E157FD4F128E118E91E0842FE7CFFB
:101B500080938F021CC0F394CC0CDD1C2CE0F2129D
:101B600056CF0F5F1F4F0430110509F042CF8FEFA2
:101B700088AB89AB1AAA0E94C92A8160782F9CABD6
:101B80008BAB48A959A96AA98CA90E9433328091CC
:101B90000C0190910D01019659F1B12CB6E1AB2EDB
:101BA0001EC0A89EF001A99EF00D1124EB5DFA4F16
:101BB000C288D388C114D10419F4A8ECCA2ED12C40
:101BC000A89E7001A99EF00C112487010B5D1A4F8D
:101BD000D80116968C91169781112AC0B3948B2D3B
:101BE00090E020910C0130910D0128173907CCF6B7
:101BF0000E946A1F86E0EBE5F2E08E010F5F1F4F47
:101C0000D80101900D928A95E1F7F0905D02E09085
:101C10005E02D0905F02C090600210925D0210924E
:101C20005E0210925F0210926002FF2099F015C0D0
:101C30001D968D919C911E970E94AE2AC816D906BA
:101C400068F6C8010E94DA2BC701855D9A4F0E9491
:101C5000932BC4CFEE2009F44FC08091590290918C
:101C60005A020E94AE2A9C0190913006992309F4F1
:101C700048C42531310508F43FC09F3F19F09F5FEC
:101C800090933006FF2061F00E94B4331F1414F4C7
:101C900091E001C09FEF899F802D112480935D0208
:101CA000EE2061F00E94B4331E1414F491E001C0E0
:101CB0009FEF899F802D112480935E0230915D02F9
:101CC0003323D1F020915E022223B1F045EB34039F
:101CD000C0011124992319F090935D0202C0309243
:101CE0005D0235EB2303C0011124992319F0909371
:101CF0005E0202C030925E02D11003C0CC2009F413
:101D00004FC080915702909158020E94AE2A9C01C8
:101D100090912F06992309F4F9C32135310508F470
:101D20003FC09F3F19F09F5F90932F06DD2061F029
:101D30000E9492331D1414F491E001C09FEF899F1B
:101D4000802D112480935F02CC2061F00E94923399
:101D50001C1414F491E001C09FEF899F802D112481
:101D60008093600230915F023323D1F020916002B2
:101D70002223B1F045EB3403C0011124992319F05B
:101D800090935F0202C030925F0235EB2303C001E3
:101D90001124992319F09093600202C030926002DE
:101DA00080915D0281110BC080915E02811107C09C
:101DB00080915F02811103C08091600281110E94B5
:101DC0009917FB82EC82DD82CE8286E0F801ABE5DA
:101DD000B2E001900D928A95E1F70E94872B9091D5
:101DE0004A02891380934A028091F905843009F0F0
:101DF0008FCD83E08093E9008091E80082FF88CD59
:101E00008091E80085FF21C00E94FB1C81111BC04E
:101E1000F0E2CF2ED12C780109C08091F100D701DA
:101E20008D937D01B1E0CB1AD10869F08091E80073
:101E300085FDF3CF8091E8008B778093E8000E94C6
:101E4000FB1C882399F391E001C090E08091E800A9
:101E50008B778093E800992309F45ACDE0901C0514
:101E6000F0901D058981E114F10461F08E3F09F0C5
:101E700024C38A81833008F4C3C18550833008F0BD
:101E80001CC3BEC18B3009F4A5C108F5853009F427
:101E900077C0A8F48230B9F128F4813009F00BC37F
:101EA0001A827DC0833009F45EC0843009F003C318
:101EB0004C816B818A810E94A62D9D8320C387302F
:101EC00009F4F9C208F0F7C20E94262DF6C280314B
:101ED00009F4C1C060F48D3009F45FC008F45BC040
:101EE0008E3009F45EC08F3009F486C0E4C28231BE
:101EF00009F4B7C008F4B2C0833109F4DCC08E3FE6
:101F000009F47EC1D8C28A81823009F4F1C28330DB
:101F100051F0813009F0CFC20E94BD2A9B838C838F
:101F20007D836E83CAC28091180590911905892B13
:101F300009F4C3C280914F02909150029B838C831D
:101F400080915102909152029D838E838091530221
:101F5000909154029F8388878091550290915602F8
:101F600099878A87AAC28A81823009F0A4C26B81CC
:101F70007C818D819E810E94DB350E940C1F9DC259
:101F80002D813E813227232732274C816B818A8124
:101F90000E94F02C92C280E162C082E08A8389E0D4
:101FA000F6C1EA80FB80FE24EF24FE24AC80B12C35
:101FB000EDE1AE16B10408F080C26801C701895096
:101FC0009E4F9601201B310B2A153B0508F075C268
:101FD000F9E0EF16F2E0FF0630F40E944835D60132
:101FE00014968C9302C0F6011482FFEFEF1AFF0AD9
:101FF0002FEFC21AD20AE2CF8091180590911905ED
:10200000892B09F45AC2EA80FB80FE24EF24FE24C7
:10201000CC80D12C3DE1C316D10408F04EC258014A
:10202000C70189509E4F9501201B310B2C153D0592
:1020300008F043C249E0E41642E0F40628F4D50172
:1020400014966C910E946635BFEFEB1AFB0AEFEF16
:10205000AE1ABE0AE5CF0E94722C2FC284E08A839A
:102060002CC2EA80FB80FE24EF24FE24AC80B12C3D
:10207000FDE1AF16B10408F020C26801C7018796E0
:102080009601201B310B2A153B0508F016C220E8EB
:10209000E21621E0F20630F40E944835D60114968B
:1020A0008C9302C0F6011482FFEFEF1AFF0A2FEFA4
:1020B000C21AD20AE3CFEA80FB80FE24EF24FE247A
:1020C000AC80B12C3DE1A316B10408F0F6C140E8A4
:1020D000E41641E0F40608F0F0C180E891E08E19C2
:1020E0009F098A159B0508F4E8C1370187E2680E4D
:1020F000711C8091180590911905892B11F06801C8
:1021000060C0E0FE0FC0C70186960E94483590E08F
:10211000982F88272D81822B81159C4531F48FEFD4
:102120008D8303C0C12CD12C03C0CC24C394D12CEB
:10213000C5018E0D9F1D450180FF1BC0B1E08B1AAC
:10214000910855E0452E512C4C0E5D1E480C591C33
:10215000C3018A0D9B1D0E944835F201208130E0A9
:10216000322F2227282B21153C4519F48FEFD2015D
:102170008C93F801EC0DFD1D2FEFCF01801B910B0F
:102180008815990508F0BBCF848190E0982F8827A7
:102190003581832B81159C4511F424832583329648
:1021A000ECCFE0E8EE16E1E0FE0628F4D601149646
:1021B0006C910E946635BFEFEB1AFB0AEFEFCE1A67
:1021C000DE0AC70187969601201B310B2A153B05B5
:1021D00040F373C18091180590911905892B09F47A
:1021E0006CC1C8010E941A31FFEF21EE34E0F150BA
:1021F00020403040E1F700C000000E94642A5DC129
:10220000EA818E2F90E08E30910508F056C1FC01D6
:10221000EE58FF4F0C94D53588E0E5E1F1E0DE01A2
:10222000919601900D928A95E1F780E2D8011D9276
:102230008A95E9F785E0898388E0FE01B196DE01A1
:10224000159601900D928A95E1F737C184E1898353
:102250003A821B821C8231C18C8190E0982F8827A2
:102260002B81820F911D092E000CAA0BBB0B35E0B0
:10227000880F991FAA1FBB1F3A95D1F7AC01BD016A
:10228000405E5F4F6F4F7F4F481759076A077B07C4
:1022900008F413C18431E1E09E07A105B10508F0FF
:1022A0000CC14531F1E05F076105710520F044E1A3
:1022B00051E060E070E0481B590BBC016C5E7E4F42
:1022C000C8010E942F35F9C040E250E06FEF70E086
:1022D000C8010E941A36809118058983EA823B82E0
:1022E0001C8282E08D838BE00AC181E090E09093B4
:1022F0001D0580931C0582E390E090934E0280932D
:102300004D020E94C92A90934C0280934B02D5C083
:10231000EF28A9F1F0905402F3FA882780F9F090A1
:102320005102F82280914B0290914C020E94AE2AF9
:1023300085369105F0F0FF20E1F00E94C92A9093C4
:102340004C0280934B0280914D0290914E02019776
:1023500090934E0280934D02892B89F410921D05B3
:1023600010921C0581E090E0909319058093180568
:1023700006C082E390E090934E0280934D028091DC
:102380001805898380911C058A8380914D028B8377
:1023900094C010921905109218058FC040E250E0C9
:1023A0006FEF70E0C8010E941A3687C08B818130C0
:1023B00059F018F0823001F180C080E2D8011D92FE
:1023C0008A95E9F788E078C08C819AE0D92E7E0161
:1023D000B1E2EB0EF11CF7012D2D11922A95E9F7D0
:1023E000B7010E94822C8983F701DE0112960190C9
:1023F0000D92DA94E1F761C06C818AE0FE013596B6
:10240000DE01919601900D928A95E1F789A19AA13A
:1024100081153CE5930741F4209118053091190589
:10242000232B11F480E090E09AA389A38BA19CA1B7
:1024300081154CE5940741F4209118053091190558
:10244000232B11F480E090E09CA38BA38DA19EA18F
:102450008115ACE59A0741F42091180530911905D2
:10246000232B11F480E090E09EA38DA38FA198A56B
:102470008115BCE59B0741F42091180530911905A1
:10248000232B11F480E090E098A78FA3683070F4BC
:10249000EAE06E9FB001112469557E4F4AE050E09A
:1024A000CE0181960E948A3580E001C08FEF89833A
:1024B0000E94F02D02C08FEF8983C8010E941A315B
:1024C00027CA19BD82E189BD09B400FEFDCF809104
:1024D000D8008F7D8093D8008091E0008260809347
:1024E000E0008091E00081FDFCCF0E94DA2819CA4B
:1024F00086E290E00E9448351B821C821D828E83FA
:10250000DCCF2B30310508F0BACBF6CB2B303105C0
:1025100008F009CC45CCEF92FF920F939701201B56
:1025200031092F3F310519F010F02FEF30E02095E1
:10253000382F320F08F43FEF832F0F91FF90EF9069
:102540000895EF92FF920F939701201B31092F3FBF
:10255000310519F010F02FEF30E0322F3095482F71
:10256000430F08F44FEF842F620F0F91FF90EF900D
:102570000895EF92FF920F93972F093438F4B70123
:10258000601B71096F3F710519F010F06FEF70E07B
:10259000485F5F4F4131510540F0A901485F5F4FEF
:1025A0004131510510F06FEF70E06095482F460FF4
:1025B00008F44FEF842F37FF02C02D5F3F4F359552
:1025C00027953595279560912A06620F792F0F91EF
:1025D000FF90EF900895EF92FF920F93E00EF11CA1
:1025E000F90137FF03C0F195E195F10924E0EE0F01
:1025F000FF1F2A95E1F7EF3FF10519F014F0EFEF17
:10260000F0E09A0157FF03C031952195310994E01C
:10261000220F331F9A95E1F72E173F070CF4F901AB
:10262000EE0DFF1DEF3FF10519F010F0EFEFF0E0B8
:102630002E2F2095382F320F08F43FEF832F0F9164
:10264000FF90EF900895EF92FF920F93970195E01E
:10265000099F200D311D11242F3F310519F010F075
:102660002FEF30E02095382F320F08F43FEF832F03
:102670000F91FF90EF90089522E8241B08F420E0CA
:10268000620F08954095282F429F412D1124842FD9
:102690000895E42FF0E0EE0FFF1FE858FE4F61A908
:1026A000621B0895E42FF0E0EE0FFF1FE855FE4F88
:1026B0006081621B0895622F0895E42FF0E0EE0F11
:1026C000FF1FE855FE4F408134EE439F412D1124FA
:1026D000E82FF0E050E0445E5F4FDA01A21BB10941
:1026E0009D01B7FF03C031952195310993E0220F79
:1026F000331F9A95E1F7AF01421B530B9A0157FF25
:1027000002C020E030E0582F259F212D1124822F78
:102710000895E42FF0E0EE0FFF1FE855FE4F4081D3
:1027200034EE439F412D1124E72FF0E050E0445E4A
:102730005F4FDA01A21BB1099D01B7FF03C03195BC
:102740002195310993E0220F331F9A95E1F7AF01EC
:10275000421B530B9A0157FF02C020E030E0279F35
:10276000212D1124722F08950C948D1DFC019B01C5
:10277000009721F477FF2BC080E80895AC0197FF04
:1027800004C044275527481B590BB901640F751F16
:1027900037FD0CC0241B350BC901A5E0880F991F1C
:1027A000AA95E1F70E94A23580E20CC0CB0165E05A
:1027B000880F991F6A95E1F7BA01621B730B0E949B
:1027C000A23580E6861BF7FF03C08195089580E05F
:1027D0000895EF920F931F93CF93DF93D62FC72FB8
:1027E000182FC9010E19010FBA010E94B613081B58
:1027F000202F219F212D1124822F6D2F7C2FDF91DF
:10280000CF911F910F91EF900895EF920F931F9327
:10281000CF93DF93D62F172FC82FC9010E19070F9B
:10282000BA010E94B613702F781B719F712D11246D
:102830006D2F8C2FDF91CF911F910F91EF90089505
:10284000FF920F931F93CF93DF93F62ED72F182F5E
:10285000C901C12FC01BBA010E94B613982F990F4E
:10286000890FC81B2C2F219F212D1124822F6F2D02
:102870007D2FDF91CF911F910F91FF900895FF92CF
:102880000F931F93CF93DF93F62E172FD82FC901E5
:10289000C72FC01BBA010E94B613982F990F890F3A
:1028A0007C2F781B719F712D11246F2D8D2FDF913F
:1028B000CF911F910F91FF9008950C944A1DE9E26A
:1028C000F6E085E3808380911D0190911E01A09127
:1028D0001F0181839283A3838FE784838FEF858396
:1028E00046E050E06CE170E0CF010E945635109256
:1028F00028060895BC018230910508F40895613ED0
:102900008EE1780748F49B0195E0369527959A95D6
:10291000E1F748E0420F01C04FEF91E0242F30E093
:10292000290F311D35952795229FF001239FF00D2A
:10293000F00D11246E177F0718F44FEF420F04C0FB
:102940002F3F39F091E0920F491740F78FEF890F31
:1029500008958FEF089520E030E0869F212D969F07
:10296000200D311D1124C9010895CF92DF92EF92FD
:10297000FF920F931F93CF93DF93F62E472FE82FED
:10298000F0E0711106C0E85DFD4F8491782F682F4B
:1029900073C0272F30E0E85DFD4FE491FE2F0E2F2E
:1029A00010E056E0659FC0011124CFEFD0E0BE01DA
:1029B0000E941B355BEA5603C001579F900D1124FE
:1029C0008F0D911D8F0D911D982F990F980F7E01DE
:1029D000E21AF30AE09ED001E19EB00DF09EB00D28
:1029E00011248B2F499FA0011124452F55277E01CB
:1029F000E41AF50AE09EA001E19E500DF09E500DF4
:102A000011246E01C91AD108C29E7001C39EF00C38
:102A1000D29EF00C11242F2D3327C21BD30BC09F45
:102A20009001C19F300DD09F300D1124932F623043
:102A3000710591F048F461157105E1F0613071059F
:102A4000B9F49E2FE52F16C06430710569F040F08F
:102A50006630710579F00CC09E2FEB2F832F0AC0D2
:102A6000EB2F8F2F952F06C09B2F8E2FE32F02C0A9
:102A70009B2F852F7E2F692FDF91CF911F910F9173
:102A8000FF90EF90DF90CF900895BF92CF92DF92AA
:102A9000EF92FF920F931F93CF93DF93C82F8091F4
:102AA00010018C130DC020912906237030E0409155
:102AB0000F0150E081E02417350719F480E001C0D0
:102AC00081E081708093130180912E069091120114
:102AD000981739F08093120140E060E080E00E9496
:102AE000B413CB3029F489EE93E10E94143031C045
:102AF000CC3008F0A1C1C53009F43FC008F07BC15B
:102B0000C23009F4A4C008F0F1C0CC2309F494C089
:102B1000C13009F0F2C0D0911101DD0F8D2F880F67
:102B2000880FD80F1AE01D0F103308F01FE26091D4
:102B30002A0670912B0680912C060E94B514062F50
:102B4000F72EE82ED11708F4BFC081E01F3208F03D
:102B50007CC0909111019F5F909311018111DFC1A1
:102B600082E080931401809113018111D8C1C111B9
:102B7000D6C183E080931401D2C1D0911101DD0F41
:102B80008D2F880F880FD80F1AE01D0F103308F013
:102B90001FE2F0902A0600912B06E0902C0660912F
:102BA0002D066695669566958091FA059091FB05D0
:102BB0000E94AB14382F982F36FD9095E92FEF73B4
:102BC0009F7036FD9F5FE295EF70EE0FF0E0E05DE5
:102BD000FE4F8181899F802D212D112482958F7038
:102BE0002295207F822B9081890F37FD819587FD6B
:102BF0008195880F282F3E2D239F212D1124822F70
:102C00006F2D702F0E94B514062FF72EE82ED117C6
:102C100008F09BCFED2FF0E0DF01AA5FBD4F8C9154
:102C200090911201982331F02E2D402F6F2DCF015E
:102C30000E945D14DF5FEBCF80911301882329F0A0
:102C400040E060E080E00E94B41380E082CFD09149
:102C50001101DD0F8D2F880F880FD80F1AE01D0F7F
:102C6000103308F01FE2F0902B0600912C06E09044
:102C70002A06B701802F0E94B514D62EC72EB82E73
:102C800060912D066E0D7F2D802F0E94B514062FAA
:102C9000F72EE82ED11708F058CF8D2F90E0FC01C9
:102CA000EA5FFD4F308120911201232359F030FF5C
:102CB00004C02E2D402F6F2D03C02B2D4D2D6C2DBC
:102CC0000E945D14DF5FE6CFED2FF0E0DF01AA5F29
:102CD000BD4F8C9190911201982331F02E2D402FF1
:102CE0006F2DCF010E945D14DF5F2CCF8091110109
:102CF000C33049F0C43009F440C0809111018F5FA6
:102D0000809311012DCF880FD82FDD0FDD0FD80F45
:102D10001AE01D0F103308F01FE2D0902B06C09070
:102D20002C0620912D0600E4029F012D1124D117BD
:102D300008F00BCFED2EF12CF701EA5FFD4F9081EB
:102D4000809112018923B9F0F701EE0FFF1FE858B7
:102D5000FE4F81A982958F7060912A06809F600D39
:102D600011247D2D8C2D0E94B514462F282F672FFE
:102D7000C7010E945D14DF5FDACF880FD82FDD0F07
:102D8000DD0FD80F1AE01D0F103308F01FE2D090AE
:102D90002B06C0902C0620912D0600E4029F012DE9
:102DA0001124D11708F0D1CEED2EF12CF701EA5FF6
:102DB000FD4F9081809112018923D9F0F701EE0F28
:102DC000FF1FE855FE4F6081069FB001112445E0CA
:102DD000759567954A95E1F780912A06680F7D2DD4
:102DE0008C2D0E94B514462F282F672FC7010E94F3
:102DF0005D14DF5FD6CFC83019F48FE394E106C0CD
:102E0000C93038F0C93091F480E294E10E949130E9
:102E1000A0CEC63019F489E893E105C0C73009F0A7
:102E20006CCF8DE593E10E94C52F93CECA3009F097
:102E300064CF85E094E159CEC13161F483E293E13E
:102E400006C0C53198F5C23159F58BEE92E10E946A
:102E50007D2E7FCEC231F8F4CE3019F489E493E1AF
:102E6000E2CFCF3058F4CC3019F48BE593E1DBCFCF
:102E7000CD3009F042CF82E593E1D5CFCF3019F4C0
:102E800082E493E105C0C03109F037CF8CE393E1D0
:102E90000E944F2F5ECEC431A1F681EA92E1D7CFD6
:102EA000C33109F02ACF89EB92E1D1CFC53119F4B2
:102EB0008BE892E1CCCFCF3F09F01FCF8091FA058C
:102EC0009091FB05A091FC05B091FD0588279C70B1
:102ED000AA27BB272AE0B695A795979587952A95A7
:102EE000D1F782309105A105B10571F083309105CC
:102EF000A105B10569F040E00197A105B10511F008
:102F000060E008C064E102C044E160E080E003C02A
:102F100044E164E184E10E94B41382E02BCEDF91AE
:102F2000CF911F910F91FF90EF90DF90CF90BF90C6
:102F300008950E94C92A20915D02211104C02091A8
:102F40005E02222321F090935A028093590220912D
:102F50005F02211104C020916002222321F090938E
:102F6000580280935702E091D705F091D805309729
:102F700049F082E080935B020480F581E02D8BE5CF
:102F800092E0099408958091870287FF11C0809193
:102F9000E80082FD05C08091F9058111F8CF11C0CC
:102FA0008091E8008B770BC08091F905882349F068
:102FB0008091E80080FFF8CF8091E8008E778093C1
:102FC000E8000895982F973068F59093E9009817D6
:102FD00039F07091EC002091ED005091F00003C0A9
:102FE000242F762F50E021FD02C09F5FECCF30915F
:102FF000EB003E7F3093EB003091ED003D7F30934E
:10300000ED003091EB0031603093EB007093EC00F9
:103010002093ED005093F0002091EE0027FDE5CFC6
:1030200080E008958F708093E90081E008952091F9
:103030008D0230918E022617370748F06115710511
:1030400039F42091E8002E772093E80001C0B901FF
:10305000FC0120E06115710579F18091F905882363
:10306000F1F18530F1F18091E80083FD3CC0809161
:10307000E80082FD2EC08091E80080FFEBCF209118
:10308000F3008091F20090E0922B6115710551F0F0
:103090008830910538F421912093F1006150710935
:1030A0000196F3CF21E0089709F020E08091E80035
:1030B0008E778093E800CECF2111CFCF0AC08091C8
:1030C000F905882361F0853061F08091E80083FD87
:1030D0000AC08091E80082FFF2CF80E0089582E08C
:1030E000089583E0089581E008950895BC0184E087
:1030F0000C943A2ABC0183E00C943A2A1F93CF9394
:10310000DF93CDB7DEB7AA970FB6F894DEBF0FBE38
:10311000CDBFE7E8F2E08FE892E02091F100219343
:103120008E179F07D1F780918802833009F463C01E
:1031300030F4813071F0823009F49DC0B4C08A301F
:1031400009F489C08B3009F46EC0893009F0ABC036
:1031500020C080918702813A09F0A5C08091E800E3
:10316000877F8093E80080918B0290918C02892B5D
:1031700021F460E284E692E003C060E080E090E049
:1031800070E00E9417188091E8008B778093E80028
:103190008AC080918702813209F085C080918B02BC
:1031A00090918C02009719F0029709F07CC08091F1
:1031B000E800877F8093E8008091E80082FD05C0E9
:1031C0008091F9058111F8CF6EC02091F3008091B4
:1031D000F20090E0922B029731F48091F10081305F
:1031E00011F0863021F48091F10080936302809188
:1031F000E8008B7754C080918702813A09F053C070
:1032000080918B0290918C02892B09F04CC08091A7
:10321000E800877F8093E8008091E80080FFFCCF82
:1032200080910E0137C0809187028132E1F5809153
:103230008B0290918C02892BB1F58091E800877FF9
:103240008093E8000E94C3178091890280930E0149
:103250000E94DA2828C080918702813221F580916E
:10326000E800877F8093E8000E94C31780918A025C
:103270008093620218C080918702813AA1F4809104
:10328000E800877F8093E8008091E80080FFFCCF12
:10329000809162028093F1008091E8008E778093A4
:1032A000E8000E94C3178091E80083FFEBC1809182
:1032B000870290918802492F50E04A30510508F06A
:1032C000E1C1FA01E058FF4F0C94D535803821F068
:1032D000823809F0D7C108C080918402909185029C
:1032E000992389F082600FC080918B028F708730A4
:1032F00008F0C8C18093E9008091EB0085FB882726
:1033000080F91092E9009091E800977F9093E8008F
:103310008093F1001092F1007CC1282F2D7F09F0DD
:10332000B1C1882319F0823061F0ACC1809189026B
:10333000813009F0A7C1933009F080E080938502C5
:103340002EC08091890281112AC080918B028F70DA
:103350002FEF280F263008F095C18093E9002091C7
:10336000EB0020FF1CC0933021F48091EB008062C1
:1033700014C09091EB0090619093EB0021E030E05D
:10338000A90102C0440F551F8A95E2F74093EA0055
:103390001092EA008091EB0088608093EB0010921D
:1033A000E9008091E800877F8093E8000E94C317BE
:1033B00069C1811167C1109189021F778091E30073
:1033C0008078812B8093E3008091E800877F809351
:1033D000E8000E94C3178091E80080FFFCCF809135
:1033E000E30080688093E300111102C082E001C015
:1033F00083E08093F90546C18058823008F042C1CD
:103400002091890230918A022C3D53E0350779F5ED
:1034100083E08A838AE289834FB7F894DE011396AA
:1034200020E03EE051E2E32FF0E050935700E491BA
:1034300020FF03C0E295EF703F5FEF708E2F90E0AA
:10344000EA3010F0C79601C0C0968D939D932F5F10
:10345000243149F74FBF8091E800877F8093E800CF
:103460006AE270E0CE0101960E941718C0C08091F8
:103470008B0290918C02432F552743305105B1F0B8
:1034800068F44130510509F40CC14230510509F08E
:10349000F9C08BE590E0E6E4F4E057C04132510515
:1034A00089F14232510509F43CC0ECC0C9019927A9
:1034B00081309105B9F070F082309105D9F0039711
:1034C00009F0E0C0E3EBF4E0E4918E2F90E0E3EB51
:1034D000F4E038C0EBEFF4E0E4918E2F90E0EBEFF6
:1034E000F4E030C0E1EEF4E0E4918E2F90E0E1EE04
:1034F000F4E028C0E1EDF4E0E4918E2F90E0E1EDFE
:10350000F4E020C08330910508F0BCC0880F991FFB
:10351000FC01EF5BFE4F0190F081E02D89E090E02F
:1035200014C08330910508F0ADC0FC01EE0FFF1F01
:10353000E55CFE4F0190F081E02DDC01A85CBE4F00
:103540008C9190E0009709F49DC02091E800277FBE
:103550002093E80020918D0230918E0228173907C0
:1035600008F4C90140E0009789F12091F905222370
:1035700009F43DC02530D9F12091E80023FD37C082
:103580002091E80022FD2FC02091E80020FFEBCF22
:103590004091F3002091F20030E0342B009759F075
:1035A0002830310540F444914093F1003196019761
:1035B0002F5F3F4FF3CF41E02830310509F040E065
:1035C0002091E8002E772093E800CDCF4111CDCF98
:1035D0000AC08091F905882351F0853041F080912F
:1035E000E80083FD04C08091E80082FFF2CF809163
:1035F000E8008B778093E80045C0803809F042C02E
:103600008091E800877F8093E80080918602809314
:10361000F1008091E8008E77C7CE811133C0809190
:10362000890290918A029927029764F58091E800B7
:10363000877F8093E80010918902109386020E9490
:10364000C317111106C08091E30087FD02C081E01D
:1036500001C084E08093F90542E061EC81E00E94C2
:10366000E21742E261EC84E00E94E21742E261EC80
:1036700082E00E94E21742E260EC83E00E94E217DF
:103680008091F9058091E80083FF10C08091E800E7
:10369000877F8093E8008091EB0080628093EB004D
:1036A00005C082E190E0E1EAF4E04FCFAA960FB6C0
:1036B000F894DEBF0FBECDBFDF91CF911F9108956B
:1036C0001F920F920FB60F9211242F933F934F9397
:1036D0005F936F937F938F939F93AF93BF93CF939A
:1036E000DF93EF93FF93C091E900CF708091EC00DE
:1036F000D82FD17080FDD0E81092E9008091F000C1
:10370000877F8093F00078940E947E181092E900E1
:103710008091F00088608093F000CD2BCF70C09333
:10372000E900FF91EF91DF91CF91BF91AF919F9110
:103730008F917F916F915F914F913F912F910F905A
:103740000FBE0F901F901895E8EDF0E080818E7FFE
:1037500080831092E2001092DA001092E100A0EE55
:10376000B0E08C9181608C9380818F77808319BCCD
:10377000A7EDB0E08C918E7F8C9380818F7E8083CB
:10378000109261020895CF92DF92EF92FF920F9311
:103790001F93CF93DF93C8EDD0E088818F7E88831D
:1037A000E7EDF0E080818160808384E082BF81E08A
:1037B0008093610288818E7F888302EE10E0F80199
:1037C00010821092DA0081EEC82ED12CF601108200
:1037D00088818F77888388818068888388818F7DBE
:1037E000888319BC1092F905109286021092850206
:1037F0001092840290EEE92EF12CF70180818B7FEC
:10380000808388818160888342E060E080E00E945C
:10381000E217F60180818E7F8083F80180818160CC
:103820008083808188608083F70180818E7F8083A0
:10383000888180618883DF91CF911F910F91FF90E4
:10384000EF90DF90CF9008951F920F920FB60F92D6
:1038500011242F933F934F935F936F937F938F9395
:103860009F93AF93BF93EF93FF938091E10082FF0B
:1038700009C08091E20082FF05C08091E1008B7F4A
:103880008093E1008091DA0080FF2AC08091D80007
:1038900080FF26C08091DA008E7F8093DA008091CD
:1038A000D90080FF18C080E189BD82E189BD09B4DB
:1038B00000FEFDCF81E08093F905809161028111C6
:1038C0000FC00E94A41B0E94C31B8091E200846071
:1038D0008093E20005C019BC1092F90510926102B4
:1038E0008091E10080FF17C08091E20080FF13C04B
:1038F0008091E2008E7F8093E2008091E2008061FF
:103900008093E2008091D80080628093D80019BC37
:1039100085E08093F9058091E10084FF30C08091BB
:10392000E20084FF2CC080E189BD82E189BD09B439
:1039300000FEFDCF8091D8008F7D8093D8008091CC
:10394000E1008F7E8093E1008091E2008F7E809382
:10395000E2008091E20081608093E2008091860223
:10396000882311F084E007C08091E30087FD02C046
:1039700081E001C083E08093F9058091F905809191
:10398000E10083FF27C08091E20083FF23C0809184
:10399000E100877F8093E10082E08093F905109237
:1039A00086028091E1008E7F8093E1008091E200A9
:1039B0008E7F8093E2008091E20080618093E2003C
:1039C00042E060E080E00E94E2178091F0008860B1
:1039D0008093F000FF91EF91BF91AF919F918F91F4
:1039E0007F916F915F914F913F912F910F900FBEFB
:1039F0000F901F9018952091E4003091E50095E616
:103A00004091EC00842F817040FF23C08091E8003A
:103A100080FD1DC08091F905882399F0853099F0CB
:103A20008091EB0085FD11C04091E4005091E500CC
:103A30002417350729F3915011F09A01E1CF84E062
:103A4000089582E0089583E0089581E0089580E07C
:103A500008954091E80042FFDDCF0895E9E2F6E0E5
:103A6000248130E1231B08F420E024838091280680
:103A70008160809328060895E9E2F6E0248130E130
:103A8000230F08F42FEF2483809128068160809310
:103A900028060895FF920F931F93CF93DF9300D0D2
:103AA00000D0CDB7DEB78F32910568F5122F042F05
:103AB000F62EBC01660F771F660F771F61507B4F94
:103AC00044E050E0CE0101960E942F358981837039
:103AD0002A81E82FF0E030EC839FC00111248F5041
:103AE0009D4FDC01A20FB11DFC922B81DC01A20FC6
:103AF000B11D0C932C81DC01A20FB11D1C93E1516F
:103B0000FD4F81E080830F900F900F900F90DF9119
:103B1000CF911F910F91FF900895FF920F931F93E4
:103B2000CF93DF93182F062FF42EC0E0D0E02F2D77
:103B3000402F612FCE010E944A1D2196CF32D10520
:103B4000B1F7DF91CF911F910F91FF9008950F93DF
:103B50001F93CF938091EF02882331F165EC8EEFB4
:103B60000E94403161E08DEF0E94403101EF12E090
:103B7000C0E0C093E505E6EEF5E0D8018D918193B4
:103B800085E0E63FF807D1F724E630E041E150E078
:103B900065EE75E080EA0E94F434892B59F4C05F29
:103BA000005F1F4FC03C29F71092EF02CF911F9189
:103BB0000F91089581E08093ED02F6CFAF92BF920E
:103BC000CF92DF92EF92FF920F931F93CF93DF93E9
:103BD00000D000D0CDB7DEB70E943D3465EC8EEF4B
:103BE0000E94403160E08DEF0E94403110E060E0C3
:103BF000812F0E9440311F5F1831C9F765EC8EEFAD
:103C00000E94403161E08DEF0E94403110E060E0A1
:103C1000812F0E9440311F5F103CC9F765EC8EEF89
:103C20000E94403163E08DEF0E94403160E08FE000
:103C30000E94403160E080E10E9440316FEF81E0FE
:103C40000E94403161E080E00E9440318FE39CE9B6
:103C50000197F1F700C000000FEF14E09BEBC92EB5
:103C600095E0D92E28E1A22EEE24E394F12CBB247A
:103C7000B39444E050E0B801CE0101960E942F3584
:103C80006A815B814C818981837090E0762F769583
:103C900076957695A89E9001A99E300D1124235407
:103CA0003D4FF901E70FF11D6770D70102C0AA0F60
:103CB000BB1F6A95E2F7BD017081672B6083652F9A
:103CC000669566956695F901E60FF11D5770B70187
:103CD00001C0660F5A95EAF75081652B6083542F17
:103CE000569556955695F901E50FF11D47709701C8
:103CF00002C0220F331F4A95E2F7A9012081422B0F
:103D00004083FC01E351FD4FB0820C5F1F4FC01692
:103D1000D10609F0AECF8091ED02811111C0109251
:103D2000ED020F900F900F900F90DF91CF911F91A8
:103D30000F91FF90EF90DF90CF90BF90AF900895DC
:103D400065EC8EEF0E94403160E08DEF0E944031C3
:103D50008DEBE82E82E0F82E10E0D7016D917D0109
:103D6000812F0E9440311F5F1831B9F7D8CFE9E2A7
:103D7000F6E0438120E1421B08F440E0818162814A
:103D800090E00C94462EE9E2F6E0438120E1420FF8
:103D900008F44FEF8181628190E00C94462EE9E2B5
:103DA000F6E0628120E1621B08F460E081814381DA
:103DB00090E00C94462EE9E2F6E0628120E1620F89
:103DC00008F46FEF8181438190E00C94462EE9E284
:103DD000F6E0818190E04381628108970C94462E41
:103DE000E9E2F6E0818190E04381628108960C94DB
:103DF000462E8091290686958695815009F485E1A5
:103E00000C94592E80912906869586958F5F863170
:103E100008F081E00C94592E86E290E00C9466350F
:103E2000CF93C82F811102C06FEF01C063EF83E20F
:103E300090E00E946635C11102C06FEF01C062ECD4
:103E400084E290E00E946635C11102C06FEF01C0AC
:103E50006BEC85E290E0CF910C94663580E00E9497
:103E6000101F60E070E0CB010E940C1F0E94262D05
:103E70000E94722C81E00C94101F83E290E00E945B
:103E80004835833F81F484E290E00E944835823CCB
:103E900051F485E290E00E94483591E08B3C09F0B6
:103EA00090E0892F01C080E081700895882311F08F
:103EB000FA0101C0FB010994E9E2F6E0908181E09A
:103EC0008927808310921401809128068160809355
:103ED000280608954F925F926F927F928F929F92E1
:103EE000AF92BF92CF92DF92EF92FF928091B80291
:103EF0009091B902A091BA02B091BB022FB7F89489
:103F0000C090DC05D090DD05E090DE05F090DF0587
:103F10002FBFC81AD90AEA0AFB0A0E94BD2A4B0120
:103F20005C016093B8027093B9028093BA029093D7
:103F3000BB02A0918F02EFE8F2E08A2F90E04FEFF2
:103F40005FEF60E070E04C195D096E097F09A91709
:103F500099F0218D328D2901612C712C4415550564
:103F60006605770510F4815004C02C0D3D1D328F7D
:103F7000218F9F5F3296EBCF80938F028091BC029E
:103F8000811108C080912906982F937019F08695A9
:103F9000869501C080E0909114019130D9F028F00D
:103FA000923031F1933089F15BC01092110180920F
:103FB000FA059092FB05A092FC05B092FD0589E2FE
:103FC000EFE8F2E0AEEFB5E001900D928A95E1F7EF
:103FD00081E018C0FF90EF90DF90CF90BF90AF903E
:103FE0009F908F907F906F905F904F900C944515AD
:103FF0008093100180912906837080930F010E94A5
:10400000A71D83E0809314012BC08091280688238C
:1040100051F046E050E06CE170E089E296E00E94E9
:104020005635109228064091FA055091FB05609193
:10403000FC057091FD052FB7F8948091DC059091F7
:10404000DD05A091DE05B091DF052FBF841B950B28
:10405000A60BB70B4097A105B10510F01092140103
:10406000FF90EF90DF90CF90BF90AF909F908F9098
:104070007F906F905F904F9008950F931F93CF9311
:10408000DF9300D000D01F92CDB7DEB78C019093A4
:104090001B0580931A05011580E2180738F5802F5B
:1040A0000E941129C801805E9109089718F0011536
:1040B000110571F4C8010E9406320F900F900F9005
:1040C0000F900F90DF91CF911F910F910C940029C9
:1040D000C8010E9406320F900F900F900F900F9022
:1040E000DF91CF911F910F910C94EF288EEF898370
:1040F0008A831B820E94C92A8160782F9D838C83CA
:1041000049815A816B818D810E9433320F900F90CB
:104110000F900F900F90DF91CF911F910F91089505
:104120000F931F93CF93DF9300D000D01F92CDB792
:10413000DEB78C0190931B0580931A05011580E270
:104140001807F8F4C801805E9109089718F0011566
:10415000110531F4C8010E9406320E94072905C0EA
:10416000C8010E9406320E94F628802F0F900F90FF
:104170000F900F900F90DF91CF911F910F910C94A2
:1041800043298EEF89838A8381E08B830E94C92A29
:104190008160782F9D838C8349815A816B818D81C9
:1041A0000E9433320F900F900F900F900F90DF917D
:1041B000CF911F910F910895CF93DF93EC010E944F
:1041C00090208FE39CE90197F1F700C00000CE0139
:1041D000DF91CF910C943D200F931F93CF93DF93EA
:1041E0008C01EB016EE075E08C2F0E94822C892BF4
:1041F00009F06DC0DD27F8018081813041F491859F
:10420000911115C09285992391F082E010C08230FF
:1042100049F4F8018185811107C08285811106C0AA
:1042200083E005C086E003C085E001C084E0CA5F8A
:10423000DA4F88838330B1F028F4813071F0823016
:1042400031F045C08430A9F0853079F140C08091CB
:104250001005909111050097A1F580910E059091A0
:104260000F0520C080911205909113050097E9F089
:1042700028C08091140590911505009711F5809143
:104280000E0590910F05009749F00E94DC20809167
:10429000100590911105009781F013C080911005D1
:1042A00090911105009799F00CC080910E059091A6
:1042B0000F05009761F00E94DC2080910E0590911F
:1042C0000F05DF91CF911F910F910C949020DF91FA
:1042D000CF911F910F9108950F931F93CF93DF9369
:1042E0008C01862F6EE075E00E94822C892BD1F420
:1042F000C0910E05D0910F052097A1F0F8018081A3
:10430000833039F4CE010E94DC20CE010E94DC20F3
:1043100002C0843038F0CE01DF91CF911F910F9110
:104320000C94DC20DF91CF911F910F91089580E0D4
:1043300008959091E00592FF0DC0282F2871283034
:1043400019F4877F846006C0282F2471243011F46B
:104350008B7F886093FF0DC0282F2871283119F4B6
:10436000877E846106C0282F2471243111F48B7E4E
:1043700088612091E10520FF0DC0382F3871383059
:1043800019F4877F816006C0382F3171313011F404
:104390008E7F886021FF0DC0282F2871283119F4E5
:1043A000877E816106C0282F2171213111F48E7E14
:1043B000886194FD877E0895F894E82FE295EF7068
:1043C000F0E031A1282F2F7081E090E001C0880F2C
:1043D0002A95EAF7982F9095932391A392A1892B80
:1043E00082A378940895CF93DF938238910569F181
:1043F000B0F48133910509F46FC048F48932910516
:1044000009F465C08A32910509F46BC08AC085330E
:10441000910509F457C089339105B9F082C0833EF4
:10442000910571F138F4803E9105B1F0823E91051D
:1044300011F177C0863E9105B9F1873E9105C9F12A
:10444000843E910509F06DC024C02091E00520FD57
:1044500053C021FD51C065C08091E00580FD46C07C
:104460008091E10580FF48C08091E00584FD50C146
:1044700083EE90E04FC18091E00582FF3AC0F4CF17
:104480008091E00582FD35C08091E10580FD34C05A
:10449000EBCF8091E10581FF35C08091E00584FD7F
:1044A00037C187EE90E036C18091E00583FF27C0D9
:1044B000F4CF8091E00583FD22C08091E10581FD6C
:1044C00021C0EBCF8091E00585FD1FC021C0809108
:1044D000E00585FD1DC019C08091E00586FD1BC06B
:1044E0001DC08091E00586FD19C015C089E390E0EC
:1044F00011C182EE90E00EC180EE90E00BC186EE1D
:1045000090E008C184EE90E005C189E290E002C12C
:1045100085E390E0FFC08AE290E0FCC081E390E098
:10452000F9C0811531E5930708F069C0811540E5B0
:104530009407F0F09C0174E0369527957A95E1F7A1
:10454000922F9370482F437021E030E002C0220F79
:10455000331F4A95E2F73C68392B982F9F70969548
:10456000969540E2949FC0011124822B932BD2C0D8
:10457000883E910568F5803E910508F0CBC0883AE9
:104580009105B8F4853A910548F0855AE82FF0E096
:10459000E95BFE4F808190E09064BCC08130910562
:1045A00009F4B3C008F4B4C08430910508F4B0C075
:1045B000B1C08F3B910508F0ABC0885AE82FF0E0FE
:1045C000EE0FFF1FE65BFE4F808191819464A2C0D5
:1045D000811520E2920758F4811531E0930708F025
:1045E00099C0803F910508F493C0906593C08115F0
:1045F00040E4940708F48CC09F70906A8BC08115CA
:1046000025E5920708F042C0811534E5930728F0AC
:10461000982F8827846F906A7DC0811543E59407A1
:10462000B0F09C012370332741E050E002C0440FFA
:10463000551F2A95E2F7282F2695269580E2289F78
:1046400090011124CA01822B932B9A6863C08115B3
:1046500022E5920728F4982F8827816F906A5AC024
:104660009C012370332741E050E002C0440F551FE6
:104670002A95E2F7282F2695269580E2289F90011B
:104680001124CA01822B932B9C6844C0EC01811534
:1046900039E59307A8F48115984528F09C2F8827C1
:1046A000806F906A37C0C11586E5D80788F58C2FD2
:1046B0000E9499218F7190E0982F882790622AC0DC
:1046C00081152AE5920790F48C2F8F700E94992112
:1046D00094E0D695C7959A95E1F7CF70D0E0DC2F9E
:1046E000CC27D0699E01282BC90114C09056811592
:1046F000904270F48D2F8F710E949921282F2F7175
:10470000CE0199279062922B05C081E090E002C013
:1047100080E090E0DF91CF910895CF9384E090E026
:104720000E944835C82F82E290E00E9448352C2F25
:1047300030E0A901582BCA01CF91089580E090E0A4
:104740000E945035893E9E4F11F40C943D1F80E02D
:10475000089569EE7EEF80E090E00E94843560E08D
:1047600082E090E00E94663560E083E090E00E9485
:1047700066351092F00460E084E090E00E946635B7
:1047800060E082E290E00E94663560E085E090E0C3
:104790000E94663560E086E090E00E9466356FEF2B
:1047A00087E090E00E94663540E050E0BA0188E082
:1047B00090E00E94783560E08DE090E00E946635E0
:1047C00040E050E0BA0188E190E00E94783560E076
:1047D00087E190E00E94663540E050E0BA018CE14C
:1047E00090E00E94783560E070E080E290E00E9406
:1047F000843540E050E0BA0188E190E00E947835CD
:1048000080E00E94101F0E942E1F40E050E0BA017D
:104810008FE090E00E94783540E050E0BA0183E1FB
:1048200090E00C9478358091EF04882331F0109259
:10483000EF041092EE041092ED040895809590918B
:104840002205892380932205089580959091210562
:1048500089238093210508951092CC041092CB04F3
:104860001092CA0408952091CC04809582238093ED
:10487000CC04982F977099F430E0482F082E000C44
:10488000550B2417350759F09091E10592FD07C0AB
:104890008595859585950E94BF280C942C240895B4
:1048A000CF93C091E105C2FB992790F9981799F031
:1048B00080FBC2F9C093E1056091E00584E090E0DF
:1048C0000E9466356C2F82E290E00E94663582E09D
:1048D000CF910C943324CF9108958091C904811114
:1048E0001092C90408958091C80490919704891783
:1048F00019F08F5F8770FBCF08950F931F93CF93AD
:10490000DF938091960482958F7009F05DC080914D
:104910009304882309F458C08091C8041091970427
:104920006091910470919204C0919404D091950487
:1049300091E06F3F09F090E0292F06E0811709F41C
:1049400043C0209721F07F3F21F030E003C031E0E9
:1049500001C0322F90E030FD34C0089FF001099F64
:10496000F00D1124DF01A856BB4F11963C91119711
:10497000371327C03C91361324C012963C911297EE
:1049800031111FC013964D915C9114974C1B5D0B18
:10499000483C5105B0F4809196048F7080618093FB
:1049A0009604E356FB4F80818F708061808381E99C
:1049B00094E00E943004DF91CF911F910F910C94ED
:1049C000732401968770BACFDF91CF911F910F9119
:1049D00008959091210580912205892B809371047F
:1049E0008091EF04882361F10E94C92A2091ED048F
:1049F0003091EE04821B930B8838934110F00E9493
:104A00001324909171048091EF04892B8093710499
:104A100080910E01882331F08091E00587FF02C06C
:104A20008EE101C086E0E3E7F4E090E0815028F0F9
:104A300021912223D9F39F5FF9CF91110E94132472
:104A400040E250E06DEC74E081E794E00E940436AF
:104A5000892B21F180E2E1E7F4E0ADECB4E00190D4
:104A60000D928A95E1F7E091D705F091D80530973E
:104A7000A9F080910E01882359F08091E00587FF0D
:104A800007C0809171048093720486E08093710462
:104A90000280F381E02D81E794E0099408959091DC
:104AA000E10592FD10C098E0899F90011124262B0A
:104AB0002093CC040E94CB280E94C92A9093CB0457
:104AC0008093CA0408950C94CB288F929F92AF9242
:104AD000BF92CF92DF92EF92FF920F931F93CF93EB
:104AE000DF93CDB7DEB728970FB6F894DEBF0FBEC1
:104AF000CDBFAE014F5F5F4F7A0188E0DA011D92B2
:104B00008A95E9F700E211E0CC24C394D12CAA24C1
:104B1000A394B12C4E01B9E08B0E911CF801808159
:104B20008F3F09F44AC0F894E82FE295EF70F0E067
:104B300021A18F70A50102C0440F551F8A95E2F78D
:104B4000CA01922F982B91A392A18095892382A3C9
:104B5000789400C06CE271E0F701A6014095509591
:104B6000DB012D91BD012F3FA9F0822F82958F701F
:104B700090E0DC0190968C9190E02F7002C09595AA
:104B800087952A95E2F780FD05C0808191818C2967
:104B90009D2904C080819181842395239183808302
:104BA00032968E169F06E1F6F80180818F3F11F054
:104BB0000E94DC21F0EAFA95F1F7CC0CDD1C0F5FC6
:104BC0001F4F41E00C32140709F0A8CF48E050E035
:104BD000B70189E392E00E94043611E0009709F4DE
:104BE00010E0892B89F088E0F701A9E3B2E0019099
:104BF0000D928A95E1F781E08093F3040E94C92A1F
:104C00009093F2048093F1048091F304882351F18E
:104C10008091F1049091F2040E94AE2A059710F160
:104C20008091390290913A029093500280934F0202
:104C300080913B0290913C029093520280935102EA
:104C400080913D0290913E029093540280935302D2
:104C500080913F02909140029093560280935502BA
:104C60001092F304812F28960FB6F894DEBF0FBE82
:104C7000CDBFDF91CF911F910F91FF90EF90DF900B
:104C8000CF90BF90AF909F908F90089580E090E07C
:104C90000E94712B80E090E00E945B2B1092220515
:104CA0000E94E924EBE5F2E086E0DF011D928A959F
:104CB000E9F71092300610922F06109231060C94EC
:104CC0009917CF92DF92FF920F931F93CF93DF93A9
:104CD0006C01009127068091F004082BC7E0D0E01A
:104CE00010E0C8010C2E02C0959587950A94E2F752
:104CF00080FD04C02197A8F7F12C09C0FC2EB60155
:104D00008C2F0E94D42D0E94F321019799F38F2DAF
:104D1000DF91CF911F910F91FF90DF90CF90089579
:104D2000CF93DF93EC010E946126BE010E94D42D37
:104D30000E94F321DF91CF910895FC018081918140
:104D40000E94902692959F70963079F010F49250C0
:104D500001C09A50923068F4803F69F018F4883EA0
:104D600040F409C0843F29F406C0883E20F0813F0A
:104D700011F080E0089581E008959F92AF92BF9274
:104D8000CF92DF92EF92FF920F931F93CF93DF9317
:104D9000CDB7DEB761970FB6F894DEBF0FBECDBFBB
:104DA0008C0185E0F801DE011D9601900D928A9537
:104DB000E1F7F801E28090919104609192044091B2
:104DC0009404509195044115510531F06F3F31F431
:104DD00081E09F3F19F403C081E001C080E0F82F1B
:104DE000F1709F2E80FD1AC1F80130812181C380AE
:104DF000D48081E9A82E84E0B82EF0909304F601C7
:104E0000E41BF50BFF2009F4C6C080919604E83C32
:104E1000F10508F091C0482F407F09F050C062139F
:104E200011C093130FC0FE2CE1100CC08F70806175
:104E300080939604C5010E94300480919604F80185
:104E4000858329C1CD2831F02F3F31F481E03F3FE8
:104E500019F403C081E001C080E080FD03C081E05F
:104E60008E2502C080E090E0F82FF170FF2E80FFC9
:104E70001CC08091C8044091970456E0841709F43F
:104E8000E8C090E0589FF001599FF00D1124E856BA
:104E9000FB4F6181261306C06081631303C06281EA
:104EA000E61203C001968770E9CFFE2CEE2009F4CC
:104EB000F2C08091960481608093960449C0621389
:104EC00006C0931304C0E11002C0F80186C0C801F7
:104ED0000E949D26882351F1EE2041F120919604F5
:104EE000822F82958F7090E0029774F080919104E8
:104EF0009091920498878F831986DB86CA862C87C7
:104F0000CE0107960E94300486E0F801A1E9B4E0E2
:104F100001900D928A95E1F70E947D240AC06217E4
:104F2000C9F0C8010E949D2681111EC0C8010E94BF
:104F30003004FF24F394AFC0482F407F81F781E90C
:104F400094E00E94300486E0F50111928A95E9F719
:104F5000F12CA1C09313E5CFE110E3CFF8018583D5
:104F6000C8010E94300454C0EE2001F32091960441
:104F7000822F82958F7090E0029734F28091910495
:104F8000909192049A8389831B82DD82CC822E8346
:104F9000CE010196B7CFE83CF105D0F5FE2CEE200E
:104FA00029F2621327C0931325C02091960420FD97
:104FB00018C0822F82958F70482F50E041155105FF
:104FC00081F0F80125834F30510541F08F5F982F14
:104FD0009295907F822F8F70892B8583C8010E94C4
:104FE000300486E0F801A1E9B4E001900D928A95C1
:104FF000E1F751C0C8010E949D26811185CF8091A3
:105000009604816080939604C8010E94300443C0D6
:1050100086E0F50111928A95E9F73DC0EE2009F48A
:1050200085CFC8010E949D26F82E882309F47ECFE3
:1050300086E0F801A1E9B4E001900D928A95E1F7CC
:1050400080919104909192040E9490260E947D2468
:1050500022C03D872E878D859E850E949026292F10
:1050600022952F70223028F49F7039F0811105C0ED
:105070000BC0243028F49F7049F4805E883020F003
:10508000C8010E9430049F2CF92C05C0F8019581BD
:10509000907F99F7F9CF8F2D61960FB6F894DEBF08
:1050A0000FBECDBFDF91CF911F910F91FF90EF9079
:1050B000DF90CF90BF90AF909F9008959E3F61F199
:1050C0002CE0929F800D1124682F66956695669559
:1050D000982F977083E0689FB001112440E050E062
:1050E00080E0FB01E40FF51FEC50FB4F208130E026
:1050F000092E02C0369527950A94E2F721703327CE
:10510000042E01C0220F0A94EAF7822B4F5F5F4FF3
:105110004330510531F7089580E008959E3F51F1E5
:105120002CE0929F800D1124E82FE695E695E695F8
:10513000877051E001C0550F8A95EAF783E0E89F38
:10514000F0011124EC50FB4F20E030E070E0408192
:10515000CB01022E02C0969587950A94E2F78170E2
:10516000819584278523842781932F5F3F4F2330A8
:10517000310569F70895809327060C94462621E0AF
:1051800030E001C0220F8A95EAF72095809127062A
:1051900082230C94BB2821E030E001C0220F8A95C5
:1051A000EAF780912706822B0C94BB288093F004A9
:1051B0000C9446261092210580910E01882331F02F
:1051C0008091E00587FF02C08EE101C086E0E3E741
:1051D000F4E0DF011D928A95E9F70C9446268823B6
:1051E00021F00E941E240C94E9240895882339F0AC
:1051F00090912205892B809322050C94E92408952F
:10520000882321F00E9425240C94E9240895882302
:1052100039F090912105892B809321050C94E92484
:105220000895882379F19CEF980F913A30F4682F14
:1052300081E794E00E94FE2A0DC090E2980F98301A
:1052400058F4877091E001C0990F8A95EAF7892F89
:105250000E9425240C94E9249BE5980F933020F4B8
:1052600080E090E00C94712B98E5980F973120F432
:1052700080E090E00C945B2B803F20F00E940D3387
:105280000C9499170895CF93882309F472C0C82FFE
:105290008CEF8C0F813AC0F580910E018823E1F0EC
:1052A0008091E00587FF18C0EC2FE695E695E6951E
:1052B000F0E0EF58FB4F8281282F30E04C2F4770F1
:1052C00081E090E002C0880F991F4A95E2F782239F
:1052D0009323892B61F412C0E3E7F4E089E794E0BB
:1052E0002191C21721F08E179F07D1F707C06C2FAD
:1052F00081E794E00E94FE2A0E94E9246C2F81E756
:1053000094E00E94262B10C080E28C0F883078F445
:10531000C77081E090E001C0880FCA95EAF79091CC
:105320002105892B80932105CF910C94E924EBE58D
:10533000EC0FE33040F4F0E0E95BFE4F808190E059
:10534000CF910C94712BE8E5EC0FE73150F4F0E0CD
:10535000EE0FFF1FE65BFE4F80819181CF910C9491
:105360005B2BC03F30F08C2F0E94D533CF910C9433
:105370009917CF9108951F93CF93DF93182F8933F7
:1053800019F0CAE0D0E002C0C0E5D0E0812F0E9451
:1053900043298FE99FE00197F1F700C000002197B2
:1053A000C1F7812FDF91CF911F910C94112980912A
:1053B0006302089524E02093E9002FEF3091E80084
:1053C000215035FD06C035ED3A95F1F70000211169
:1053D000F5CF2091E80025FF0BC040E050E066E0EB
:1053E00070E00E94EE308091E8008E778093E800B4
:1053F0000895CF93DF9320910E01222339F020915D
:10540000E00527FF03C060E224E002C068E021E07D
:105410002093E9002FEF3091E800215035FD06C0C0
:1054200035ED3A95F1F700002111F5CF2091E80014
:1054300025FF1DC0EC0180910E01811105C040E0E7
:1054400050E068E070E003C070E040E050E0CE0162
:105450000E94EE308091E8008E778093E80080E231
:10546000FE01A4E6B2E001900D928A95E1F7DF918A
:10547000CF9108958093E2057093E4056093E3056E
:105480008091F9058430F9F48093E9008FEF9091D1
:10549000E800815095FD06C095ED9A95F1F7000062
:1054A0008111F5CF8091E80085FF0DC040E050E00C
:1054B00063E070E082EE95E00E94EE308091E800BB
:1054C0008E778093E800089581E08093E00080E289
:1054D0008093D8001092C9008FE19EE40197F1F704
:1054E00000C0000087E090EBDC01809332069093CF
:1054F0003306A0933406B09335069CE088E10FB6DE
:10550000F894A895809360000FBE90936000FFCF41
:1055100078941F920F920FB60F9211248F939F933E
:10552000AF93BF938091DC059091DD05A091DE05DE
:10553000B091DF050196A11DB11D8093DC0590930C
:10554000DD05A093DE05B093DF05BF91AF919F917C
:105550008F910F900FBE0F901F9018959C014FB721
:10556000F8948091DC059091DD05A091DE05B09165
:10557000DF054FBF821B930B08952FB7F8946091FE
:10558000DC057091DD058091DE059091DF052FBF70
:1055900008952FB7F8948091DC059091DD05A091D6
:1055A000DE05B091DF052FBF08951F920F920FB651
:1055B0000F9211248F939F93AF93BF938091DB053C
:1055C000811113C08091DC059091DD05A091DE056D
:1055D000B091DF054196A11DB11D8093DC0590932C
:1055E000DD05A093DE05B093DF05BF91AF919F91DC
:1055F0008F910F900FBE0F901F90189520910E0164
:105600002223C9F02091E00527FF15C0262F2695FB
:10561000269526952E31C8F4FC01E20FF11D677026
:1056200081E090E001C0880F6A95EAF78095928149
:10563000892382830895FC0106962281621301C0AA
:1056400012823196E817F907C1F7089520910E01EB
:105650002223C1F02091E00527FF14C0262F2695B4
:10566000269526952E3130F5FC01E20FF11D67706D
:1056700081E090E001C0880F6A95EAF79281892B5A
:1056800082830895FC0132962FEF30E04191641738
:1056900089F02F3F19F4411101C0232F3F5F3630AD
:1056A000A9F72F3F39F0FC01E20FF11D27FDFA9514
:1056B0006283089508952091D9053091DA0528175D
:1056C000390771F09093DA058093D905E091D705F9
:1056D000F091D805309721F00084F185E02D0994F0
:1056E00008952091D5053091D6052817390771F016
:1056F0009093D6058093D505E091D705F091D80514
:10570000309721F00680F781E02D09940895E0910B
:10571000D705F091D805309721F00190F081E02D68
:10572000099480E00895EF92FF920F931F93CF9317
:10573000DF93FC012285211136C0EC01E380F48067
:10574000F7E5FF1A26E12E9DC0012F9D900D112433
:10575000DC01AB5DBA4F1496ED91FC911597855D18
:105760009A4F309729F054966D917C9155970995F1
:1057700086E18E9D80018F9D100D11240B5D1A4FC7
:10578000F80187810E942524F80180850E941E244B
:105790000E94E924188219861B861E821D8210929F
:1057A000240510922305DF91CF911F910F91FF9057
:1057B000EF900895CF93DF93FC01218921111CC044
:1057C000EC0181E0818B909121058781892B809369
:1057D0002105909122058085892B809322050E94C6
:1057E000E924EA81FB81CE010696309729F06C8985
:1057F0007D89DF91CF910994DF91CF9108950F9327
:105800001F93CF93DF93C42FD22FFC018281882373
:10581000C9F0409320050E94C92A90931F058093E8
:105820001E0580E28C0F883008F057C0C77081E0F9
:1058300001C0880FCA95EAF7DF91CF911F910F91B0
:105840000C94072980912005481330C080911E05D3
:1058500090911F050E94AE2A883C910538F510E210
:105860001D0FCD17B9F080E28C0F883040F4C7705F
:1058700081E001C0880FCA95EAF70E94002918301C
:1058800028F581E09D2F977001C0880F9A95EAF75F
:105890000E940729802F0E94BB291830F0F4D7708E
:1058A00081E001C0880FDA95EAF70AC080E28C0F28
:1058B000883098F4C77081E001C0880FCA95EAF774
:1058C000DF91CF911F910F910C940029802FDF91D0
:1058D000CF911F910F910C94BB29DF91CF911F9114
:1058E0000F910895CF93DF93C7EFD1E060E0CE0131
:1058F0000E9466352196C11584E0D807B9F7DF917B
:10590000CF910895883080F49B01982F8AE0989F6A
:10591000B001112469557E4F4AE050E0C9010E9450
:10592000383580E090E008958FEF9FEF08950F9352
:105930001F93CF93DF938C01EB016EE075E08C2F0A
:105940000E94822C892B09F046C08FE39CE90197C5
:10595000F1F700C00000DD27CA5FDA4F8881F80147
:1059600010821882833079F048F4813041F182301E
:1059700091F5809110059091110509C0843051F086
:105980008530E9F028C080911205909113050097A9
:10599000B1F01BC080911405909115050097A9F4F2
:1059A00020910E0530910F05809110059091110501
:1059B0002115310541F0009741F4C90106C08091DD
:1059C0000E0590910F05009731F0DF91CF911F9157
:1059D0000F910C943D20DF91CF911F910F9108956D
:1059E0000F931F93CF93DF93843058F5643048F5BD
:1059F0004C3038F521159CE5390731F4E091180554
:105A0000F0911905EF2BE9F08901C42FD0E0CC0FFC
:105A1000DD1F98E1699FC00DD11D112490E6899F7B
:105A2000C00DD11D1124612FCE0187960E946635CD
:105A3000602FCE018896DF91CF911F910F910C942A
:105A40006635DF91CF911F910F9108956F927F92EC
:105A50008F929F92AF92BF92CF92DF92EF92FF927E
:105A60000F931F93CF93DF93CDB7DEB72A970FB66F
:105A7000F894DEBF0FBECDBFA0901805B0901905F9
:105A800081E090E09093190580931805612CC12C5A
:105A9000D12C712CE12CF12C00E010E046018E0C91
:105AA0009F1CF801EE0FFF1FE80DF91DE554FA4F9A
:105AB00025913491402F672D862D0E94F02C0F5F89
:105AC0001F4F0C30110569F788E1E80EF11C739443
:105AD00084E07812E1CF80E6C80ED11C639484E0A4
